{
  "_format": "hh-sol-artifact-1",
  "contractName": "ArtMarketplace",
  "sourceName": "contracts/ArtMarketplace.sol",
  "abi": [
    {
      "inputs": [
        {
          "internalType": "contract ArtToken",
          "name": "_token",
          "type": "address"
        }
      ],
      "stateMutability": "nonpayable",
      "type": "constructor"
    },
    {
      "anonymous": false,
      "inputs": [
        {
          "indexed": true,
          "internalType": "address",
          "name": "owner",
          "type": "address"
        },
        {
          "indexed": true,
          "internalType": "address",
          "name": "approved",
          "type": "address"
        },
        {
          "indexed": true,
          "internalType": "uint256",
          "name": "tokenId",
          "type": "uint256"
        }
      ],
      "name": "Approval",
      "type": "event"
    },
    {
      "anonymous": false,
      "inputs": [
        {
          "indexed": true,
          "internalType": "address",
          "name": "owner",
          "type": "address"
        },
        {
          "indexed": true,
          "internalType": "address",
          "name": "operator",
          "type": "address"
        },
        {
          "indexed": false,
          "internalType": "bool",
          "name": "approved",
          "type": "bool"
        }
      ],
      "name": "ApprovalForAll",
      "type": "event"
    },
    {
      "anonymous": false,
      "inputs": [
        {
          "indexed": true,
          "internalType": "address",
          "name": "from",
          "type": "address"
        },
        {
          "indexed": true,
          "internalType": "address",
          "name": "to",
          "type": "address"
        },
        {
          "indexed": true,
          "internalType": "uint256",
          "name": "tokenId",
          "type": "uint256"
        }
      ],
      "name": "Transfer",
      "type": "event"
    },
    {
      "anonymous": false,
      "inputs": [
        {
          "indexed": false,
          "internalType": "uint256",
          "name": "id",
          "type": "uint256"
        },
        {
          "indexed": false,
          "internalType": "uint256",
          "name": "tokenId",
          "type": "uint256"
        },
        {
          "indexed": false,
          "internalType": "uint256",
          "name": "price",
          "type": "uint256"
        }
      ],
      "name": "itemAddedForSale",
      "type": "event"
    },
    {
      "anonymous": false,
      "inputs": [
        {
          "indexed": false,
          "internalType": "uint256",
          "name": "id",
          "type": "uint256"
        },
        {
          "indexed": false,
          "internalType": "address",
          "name": "buyer",
          "type": "address"
        },
        {
          "indexed": false,
          "internalType": "uint256",
          "name": "price",
          "type": "uint256"
        }
      ],
      "name": "itemSold",
      "type": "event"
    },
    {
      "anonymous": false,
      "inputs": [
        {
          "indexed": false,
          "internalType": "uint256",
          "name": "id",
          "type": "uint256"
        },
        {
          "indexed": false,
          "internalType": "address",
          "name": "seller",
          "type": "address"
        }
      ],
      "name": "itemWithdrawn",
      "type": "event"
    },
    {
      "inputs": [
        {
          "internalType": "uint256",
          "name": "",
          "type": "uint256"
        }
      ],
      "name": "Items",
      "outputs": [
        {
          "internalType": "uint256",
          "name": "id",
          "type": "uint256"
        },
        {
          "internalType": "address",
          "name": "creator",
          "type": "address"
        },
        {
          "internalType": "string",
          "name": "uri",
          "type": "string"
        }
      ],
      "stateMutability": "view",
      "type": "function"
    },
    {
      "inputs": [
        {
          "internalType": "uint256",
          "name": "",
          "type": "uint256"
        }
      ],
      "name": "activeItems",
      "outputs": [
        {
          "internalType": "bool",
          "name": "",
          "type": "bool"
        }
      ],
      "stateMutability": "view",
      "type": "function"
    },
    {
      "inputs": [
        {
          "internalType": "address",
          "name": "to",
          "type": "address"
        },
        {
          "internalType": "uint256",
          "name": "tokenId",
          "type": "uint256"
        }
      ],
      "name": "approve",
      "outputs": [],
      "stateMutability": "nonpayable",
      "type": "function"
    },
    {
      "inputs": [
        {
          "internalType": "address",
          "name": "owner",
          "type": "address"
        }
      ],
      "name": "balanceOf",
      "outputs": [
        {
          "internalType": "uint256",
          "name": "",
          "type": "uint256"
        }
      ],
      "stateMutability": "view",
      "type": "function"
    },
    {
      "inputs": [
        {
          "internalType": "uint256",
          "name": "id",
          "type": "uint256"
        }
      ],
      "name": "buyItem",
      "outputs": [],
      "stateMutability": "payable",
      "type": "function"
    },
    {
      "inputs": [
        {
          "internalType": "uint256",
          "name": "tokenId",
          "type": "uint256"
        }
      ],
      "name": "getApproved",
      "outputs": [
        {
          "internalType": "address",
          "name": "",
          "type": "address"
        }
      ],
      "stateMutability": "view",
      "type": "function"
    },
    {
      "inputs": [
        {
          "internalType": "address",
          "name": "owner",
          "type": "address"
        },
        {
          "internalType": "address",
          "name": "operator",
          "type": "address"
        }
      ],
      "name": "isApprovedForAll",
      "outputs": [
        {
          "internalType": "bool",
          "name": "",
          "type": "bool"
        }
      ],
      "stateMutability": "view",
      "type": "function"
    },
    {
      "inputs": [
        {
          "internalType": "uint256",
          "name": "",
          "type": "uint256"
        }
      ],
      "name": "itemsForSale",
      "outputs": [
        {
          "internalType": "uint256",
          "name": "id",
          "type": "uint256"
        },
        {
          "internalType": "uint256",
          "name": "tokenId",
          "type": "uint256"
        },
        {
          "internalType": "address payable",
          "name": "seller",
          "type": "address"
        },
        {
          "internalType": "uint256",
          "name": "price",
          "type": "uint256"
        },
        {
          "internalType": "bool",
          "name": "isSold",
          "type": "bool"
        }
      ],
      "stateMutability": "view",
      "type": "function"
    },
    {
      "inputs": [],
      "name": "marketplace",
      "outputs": [
        {
          "internalType": "address",
          "name": "",
          "type": "address"
        }
      ],
      "stateMutability": "view",
      "type": "function"
    },
    {
      "inputs": [
        {
          "internalType": "string",
          "name": "uri",
          "type": "string"
        }
      ],
      "name": "mint",
      "outputs": [
        {
          "internalType": "uint256",
          "name": "",
          "type": "uint256"
        }
      ],
      "stateMutability": "nonpayable",
      "type": "function"
    },
    {
      "inputs": [],
      "name": "name",
      "outputs": [
        {
          "internalType": "string",
          "name": "",
          "type": "string"
        }
      ],
      "stateMutability": "view",
      "type": "function"
    },
    {
      "inputs": [
        {
          "internalType": "uint256",
          "name": "tokenId",
          "type": "uint256"
        }
      ],
      "name": "ownerOf",
      "outputs": [
        {
          "internalType": "address",
          "name": "",
          "type": "address"
        }
      ],
      "stateMutability": "view",
      "type": "function"
    },
    {
      "inputs": [
        {
          "internalType": "uint256",
          "name": "tokenId",
          "type": "uint256"
        },
        {
          "internalType": "uint256",
          "name": "price",
          "type": "uint256"
        }
      ],
      "name": "putItemForSale",
      "outputs": [
        {
          "internalType": "uint256",
          "name": "",
          "type": "uint256"
        }
      ],
      "stateMutability": "nonpayable",
      "type": "function"
    },
    {
      "inputs": [
        {
          "internalType": "address",
          "name": "from",
          "type": "address"
        },
        {
          "internalType": "address",
          "name": "to",
          "type": "address"
        },
        {
          "internalType": "uint256",
          "name": "tokenId",
          "type": "uint256"
        }
      ],
      "name": "safeTransferFrom",
      "outputs": [],
      "stateMutability": "nonpayable",
      "type": "function"
    },
    {
      "inputs": [
        {
          "internalType": "address",
          "name": "from",
          "type": "address"
        },
        {
          "internalType": "address",
          "name": "to",
          "type": "address"
        },
        {
          "internalType": "uint256",
          "name": "tokenId",
          "type": "uint256"
        },
        {
          "internalType": "bytes",
          "name": "data",
          "type": "bytes"
        }
      ],
      "name": "safeTransferFrom",
      "outputs": [],
      "stateMutability": "nonpayable",
      "type": "function"
    },
    {
      "inputs": [
        {
          "internalType": "address",
          "name": "operator",
          "type": "address"
        },
        {
          "internalType": "bool",
          "name": "approved",
          "type": "bool"
        }
      ],
      "name": "setApprovalForAll",
      "outputs": [],
      "stateMutability": "nonpayable",
      "type": "function"
    },
    {
      "inputs": [
        {
          "internalType": "address",
          "name": "market",
          "type": "address"
        }
      ],
      "name": "setMarketplace",
      "outputs": [],
      "stateMutability": "nonpayable",
      "type": "function"
    },
    {
      "inputs": [
        {
          "internalType": "bytes4",
          "name": "interfaceId",
          "type": "bytes4"
        }
      ],
      "name": "supportsInterface",
      "outputs": [
        {
          "internalType": "bool",
          "name": "",
          "type": "bool"
        }
      ],
      "stateMutability": "view",
      "type": "function"
    },
    {
      "inputs": [],
      "name": "symbol",
      "outputs": [
        {
          "internalType": "string",
          "name": "",
          "type": "string"
        }
      ],
      "stateMutability": "view",
      "type": "function"
    },
    {
      "inputs": [
        {
          "internalType": "uint256",
          "name": "index",
          "type": "uint256"
        }
      ],
      "name": "tokenByIndex",
      "outputs": [
        {
          "internalType": "uint256",
          "name": "",
          "type": "uint256"
        }
      ],
      "stateMutability": "view",
      "type": "function"
    },
    {
      "inputs": [
        {
          "internalType": "address",
          "name": "owner",
          "type": "address"
        },
        {
          "internalType": "uint256",
          "name": "index",
          "type": "uint256"
        }
      ],
      "name": "tokenOfOwnerByIndex",
      "outputs": [
        {
          "internalType": "uint256",
          "name": "",
          "type": "uint256"
        }
      ],
      "stateMutability": "view",
      "type": "function"
    },
    {
      "inputs": [
        {
          "internalType": "uint256",
          "name": "tokenId",
          "type": "uint256"
        }
      ],
      "name": "tokenURI",
      "outputs": [
        {
          "internalType": "string",
          "name": "",
          "type": "string"
        }
      ],
      "stateMutability": "view",
      "type": "function"
    },
    {
      "inputs": [],
      "name": "totalItemsForSale",
      "outputs": [
        {
          "internalType": "uint256",
          "name": "",
          "type": "uint256"
        }
      ],
      "stateMutability": "view",
      "type": "function"
    },
    {
      "inputs": [],
      "name": "totalSupply",
      "outputs": [
        {
          "internalType": "uint256",
          "name": "",
          "type": "uint256"
        }
      ],
      "stateMutability": "view",
      "type": "function"
    },
    {
      "inputs": [
        {
          "internalType": "address",
          "name": "from",
          "type": "address"
        },
        {
          "internalType": "address",
          "name": "to",
          "type": "address"
        },
        {
          "internalType": "uint256",
          "name": "tokenId",
          "type": "uint256"
        }
      ],
      "name": "transferFrom",
      "outputs": [],
      "stateMutability": "nonpayable",
      "type": "function"
    },
    {
      "inputs": [
        {
          "internalType": "uint256",
          "name": "id",
          "type": "uint256"
        }
      ],
      "name": "withdrawItem",
      "outputs": [],
      "stateMutability": "nonpayable",
      "type": "function"
    }
  ],
  "bytecode": "0x60806040523480156200001157600080fd5b5060405162002a9838038062002a98833981016040819052620000349162000166565b604080518082018252600881526720b93a2a37b5b2b760c11b6020808301918252835180850190945260048452634152544b60e01b9084015281519192916200008091600091620000c0565b50805162000096906001906020840190620000c0565b5050600d80546001600160a01b0319166001600160a01b03939093169290921790915550620001d5565b828054620000ce9062000198565b90600052602060002090601f016020900481019282620000f257600085556200013d565b82601f106200010d57805160ff19168380011785556200013d565b828001600101855582156200013d579182015b828111156200013d57825182559160200191906001019062000120565b506200014b9291506200014f565b5090565b5b808211156200014b576000815560010162000150565b6000602082840312156200017957600080fd5b81516001600160a01b03811681146200019157600080fd5b9392505050565b600181811c90821680620001ad57607f821691505b60208210811415620001cf57634e487b7160e01b600052602260045260246000fd5b50919050565b6128b380620001e56000396000f3fe6080604052600436106101815760003560e01c806373ad6c2d116100d1578063b88d4fde1161008a578063e7fb74c711610064578063e7fb74c7146104df578063e985e9c5146104f2578063ec8120c91461053b578063f4f357641461055057600080fd5b8063b88d4fde1461047f578063c87b56dd1461049f578063d85d3d27146104bf57600080fd5b806373ad6c2d1461039d5780638d9a3e93146103da57806395d89b41146103fa5780639c318c7b1461040f578063a22cb4651461043f578063abc8c7af1461045f57600080fd5b806318160ddd1161013e57806342842e0e1161011857806342842e0e1461031d5780634f6ccce71461033d5780636352211e1461035d57806370a082311461037d57600080fd5b806318160ddd146102be57806323b872dd146102dd5780632f745c59146102fd57600080fd5b806301ffc9a71461018657806306fdde03146101bb578063081812fc146101dd578063092d0afc14610215578063095ea7b31461026d57806317b47cc41461028f575b600080fd5b34801561019257600080fd5b506101a66101a1366004612300565b610570565b60405190151581526020015b60405180910390f35b3480156101c757600080fd5b506101d061059b565b6040516101b29190612371565b3480156101e957600080fd5b506101fd6101f8366004612384565b61062d565b6040516001600160a01b0390911681526020016101b2565b34801561022157600080fd5b50610235610230366004612384565b610654565b6040805195865260208601949094526001600160a01b039092169284019290925260608301919091521515608082015260a0016101b2565b34801561027957600080fd5b5061028d6102883660046123b2565b6106a2565b005b34801561029b57600080fd5b506102af6102aa366004612384565b6107bd565b6040516101b2939291906123de565b3480156102ca57600080fd5b506008545b6040519081526020016101b2565b3480156102e957600080fd5b5061028d6102f8366004612411565b610872565b34801561030957600080fd5b506102cf6103183660046123b2565b6108a3565b34801561032957600080fd5b5061028d610338366004612411565b610939565b34801561034957600080fd5b506102cf610358366004612384565b610954565b34801561036957600080fd5b506101fd610378366004612384565b6109e7565b34801561038957600080fd5b506102cf610398366004612452565b610a47565b3480156103a957600080fd5b5061028d6103b8366004612452565b600b80546001600160a01b0319166001600160a01b0392909216919091179055565b3480156103e657600080fd5b5061028d6103f5366004612384565b610acd565b34801561040657600080fd5b506101d0610da0565b34801561041b57600080fd5b506101a661042a366004612384565b600f6020526000908152604090205460ff1681565b34801561044b57600080fd5b5061028d61045a36600461246f565b610daf565b34801561046b57600080fd5b50600b546101fd906001600160a01b031681565b34801561048b57600080fd5b5061028d61049a366004612539565b610dbe565b3480156104ab57600080fd5b506101d06104ba366004612384565b610df6565b3480156104cb57600080fd5b506102cf6104da3660046125b9565b610f18565b61028d6104ed366004612384565b610fc7565b3480156104fe57600080fd5b506101a661050d366004612602565b6001600160a01b03918216600090815260056020908152604080832093909416825291909152205460ff1690565b34801561054757600080fd5b50600e546102cf565b34801561055c57600080fd5b506102cf61056b366004612630565b611475565b60006001600160e01b0319821663780e9d6360e01b1480610595575061059582611888565b92915050565b6060600080546105aa90612652565b80601f01602080910402602001604051908101604052809291908181526020018280546105d690612652565b80156106235780601f106105f857610100808354040283529160200191610623565b820191906000526020600020905b81548152906001019060200180831161060657829003601f168201915b5050505050905090565b6000610638826118d8565b506000908152600460205260409020546001600160a01b031690565b600e818154811061066457600080fd5b60009182526020909120600590910201805460018201546002830154600384015460049094015492945090926001600160a01b039091169160ff1685565b60006106ad826109e7565b9050806001600160a01b0316836001600160a01b031614156107205760405162461bcd60e51b815260206004820152602160248201527f4552433732313a20617070726f76616c20746f2063757272656e74206f776e656044820152603960f91b60648201526084015b60405180910390fd5b336001600160a01b038216148061073c575061073c813361050d565b6107ae5760405162461bcd60e51b815260206004820152603d60248201527f4552433732313a20617070726f76652063616c6c6572206973206e6f7420746f60448201527f6b656e206f776e6572206f7220617070726f76656420666f7220616c6c0000006064820152608401610717565b6107b8838361193a565b505050565b600c6020526000908152604090208054600182015460028301805492936001600160a01b03909216926107ef90612652565b80601f016020809104026020016040519081016040528092919081815260200182805461081b90612652565b80156108685780601f1061083d57610100808354040283529160200191610868565b820191906000526020600020905b81548152906001019060200180831161084b57829003601f168201915b5050505050905083565b61087c33826119a8565b6108985760405162461bcd60e51b81526004016107179061268d565b6107b8838383611a27565b60006108ae83610a47565b82106109105760405162461bcd60e51b815260206004820152602b60248201527f455243373231456e756d657261626c653a206f776e657220696e646578206f7560448201526a74206f6620626f756e647360a81b6064820152608401610717565b506001600160a01b03919091166000908152600660209081526040808320938352929052205490565b6107b883838360405180602001604052806000815250610dbe565b600061095f60085490565b82106109c25760405162461bcd60e51b815260206004820152602c60248201527f455243373231456e756d657261626c653a20676c6f62616c20696e646578206f60448201526b7574206f6620626f756e647360a01b6064820152608401610717565b600882815481106109d5576109d56126da565b90600052602060002001549050919050565b6000818152600260205260408120546001600160a01b0316806105955760405162461bcd60e51b8152602060048201526018602482015277115490cdcc8c4e881a5b9d985b1a59081d1bdad95b88125160421b6044820152606401610717565b60006001600160a01b038216610ab15760405162461bcd60e51b815260206004820152602960248201527f4552433732313a2061646472657373207a65726f206973206e6f7420612076616044820152683634b21037bbb732b960b91b6064820152608401610717565b506001600160a01b031660009081526003602052604090205490565b600e54819081108015610b03575080600e8281548110610aef57610aef6126da565b906000526020600020906005020160000154145b610b455760405162461bcd60e51b8152602060048201526013602482015272436f756c64206e6f742066696e64206974656d60681b6044820152606401610717565b81600e8181548110610b5957610b596126da565b60009182526020909120600590910201600201546001600160a01b03163314610bd05760405162461bcd60e51b815260206004820152602360248201527f596f7520617265206e6f74207468652073656c6c6572206f662074686973206960448201526274656d60e81b6064820152608401610717565b600e8181548110610be357610be36126da565b600091825260209091206004600590920201015460ff1615610c175760405162461bcd60e51b8152600401610717906126f0565b600e8381548110610c2a57610c2a6126da565b600091825260209091206004600590920201015460ff1615610c5e5760405162461bcd60e51b8152600401610717906126f0565b6000600f6000600e8681548110610c7757610c776126da565b906000526020600020906005020160010154815260200190815260200160002060006101000a81548160ff021916908315150217905550600d60009054906101000a90046001600160a01b03166001600160a01b03166342842e0e3033600e8781548110610ce757610ce76126da565b60009182526020909120600160059092020101546040516001600160e01b031960e086901b1681526001600160a01b0393841660048201529290911660248301526044820152606401600060405180830381600087803b158015610d4a57600080fd5b505af1158015610d5e573d6000803e3d6000fd5b5050604080518681523360208201527f4bf33f6d9cc0e1cdd0d8c902e8ff725e834636cc2875597843004148765cd78f935001905060405180910390a1505050565b6060600180546105aa90612652565b610dba338383611b98565b5050565b610dc833836119a8565b610de45760405162461bcd60e51b81526004016107179061268d565b610df084848484611c67565b50505050565b6000818152600260205260409020546060906001600160a01b0316610e775760405162461bcd60e51b815260206004820152603160248201527f45524337323155524953746f726167653a2055524920717565727920666f72206044820152703737b732bc34b9ba32b73a103a37b5b2b760791b6064820152608401610717565b6000828152600c602052604090206002018054610e9390612652565b80601f0160208091040260200160405190810160405280929190818152602001828054610ebf90612652565b8015610f0c5780601f10610ee157610100808354040283529160200191610f0c565b820191906000526020600020905b815481529060010190602001808311610eef57829003601f168201915b50505050509050919050565b6000610f28600a80546001019055565b6000610f33600a5490565b9050610f3f3382611c9a565b600b54610f55906001600160a01b0316826106a2565b604080516060810182528281523360208083019182528284018781526000868152600c8352949094208351815591516001830180546001600160a01b0319166001600160a01b039092169190911790559251805192939192610fbd9260028501920190612251565b5091949350505050565b600e54819081108015610ffd575080600e8281548110610fe957610fe96126da565b906000526020600020906005020160000154145b61103f5760405162461bcd60e51b8152602060048201526013602482015272436f756c64206e6f742066696e64206974656d60681b6044820152606401610717565b81600e8181548110611053576110536126da565b600091825260209091206004600590920201015460ff16156110875760405162461bcd60e51b8152600401610717906126f0565b600e838154811061109a5761109a6126da565b6000918252602090912060059091020160010154600d5460405163020604bf60e21b81526004810183905230916001600160a01b03169063081812fc9060240160206040518083038186803b1580156110f257600080fd5b505afa158015611106573d6000803e3d6000fd5b505050506040513d601f19601f8201168201806040525081019061112a919061271e565b6001600160a01b0316146111795760405162461bcd60e51b815260206004820152601660248201527513585c9ad95d081a5cc81b9bdd08185c1c1c9bdd995960521b6044820152606401610717565b600e848154811061118c5761118c6126da565b9060005260206000209060050201600301543410156111e55760405162461bcd60e51b8152602060048201526015602482015274139bdd08195b9bdd59da08199d5b991cc81cd95b9d605a1b6044820152606401610717565b600e84815481106111f8576111f86126da565b60009182526020909120600590910201600201546001600160a01b031633141561122157600080fd5b6001600e8581548110611236576112366126da565b906000526020600020906005020160040160006101000a81548160ff0219169083151502179055506000600f6000600e8781548110611277576112776126da565b906000526020600020906005020160010154815260200190815260200160002060006101000a81548160ff021916908315150217905550600d60009054906101000a90046001600160a01b03166001600160a01b03166342842e0e600e86815481106112e5576112e56126da565b906000526020600020906005020160020160009054906101000a90046001600160a01b031633600e888154811061131e5761131e6126da565b60009182526020909120600160059092020101546040516001600160e01b031960e086901b1681526001600160a01b0393841660048201529290911660248301526044820152606401600060405180830381600087803b15801561138157600080fd5b505af1158015611395573d6000803e3d6000fd5b50505050600e84815481106113ac576113ac6126da565b600091825260208220600260059092020101546040516001600160a01b03909116913480156108fc02929091818181858888f193505050501580156113f5573d6000803e3d6000fd5b507f8164c6f8917e418c49813e4586897c7067de5a886aa1bea980cd11fa57d482648433600e878154811061142c5761142c6126da565b906000526020600020906005020160030154604051611467939291909283526001600160a01b03919091166020830152604082015260600190565b60405180910390a150505050565b600d546040516331a9108f60e11b815260048101849052600091849133916001600160a01b031690636352211e9060240160206040518083038186803b1580156114be57600080fd5b505afa1580156114d2573d6000803e3d6000fd5b505050506040513d601f19601f820116820180604052508101906114f6919061271e565b6001600160a01b03161461154c5760405162461bcd60e51b815260206004820152601c60248201527f53656e64657220646f6573206e6f74206f776e20746865206974656d000000006044820152606401610717565b600d5460405163020604bf60e21b815260048101869052859130916001600160a01b039091169063081812fc9060240160206040518083038186803b15801561159457600080fd5b505afa1580156115a8573d6000803e3d6000fd5b505050506040513d601f19601f820116820180604052508101906115cc919061271e565b6001600160a01b03161461161b5760405162461bcd60e51b815260206004820152601660248201527513585c9ad95d081a5cc81b9bdd08185c1c1c9bdd995960521b6044820152606401610717565b600e541561166b5760405162461bcd60e51b815260206004820152601860248201527f42696464696e67206973206e6f7420737570706f7274656400000000000000006044820152606401610717565b6000858152600f602052604090205460ff16156116ca5760405162461bcd60e51b815260206004820152601b60248201527f4974656d20697320616c726561647920757020666f722073616c6500000000006044820152606401610717565b600e80546040805160a08101825282815260208082018a815233838501908152606084018b81526000608086018181526001808a018b558a8352965160058a027fbb7b4a454dc3493923482f07822329ed19e8244eff582cc204f8554c3620c3fd81019190915594517fbb7b4a454dc3493923482f07822329ed19e8244eff582cc204f8554c3620c3fe86015592517fbb7b4a454dc3493923482f07822329ed19e8244eff582cc204f8554c3620c3ff850180546001600160a01b03929092166001600160a01b031990921691909117905590517fbb7b4a454dc3493923482f07822329ed19e8244eff582cc204f8554c3620c40084015590517fbb7b4a454dc3493923482f07822329ed19e8244eff582cc204f8554c3620c401909201805492151560ff199384161790558b8152600f90925292902080549092161790558154909182918290811061181f5761181f6126da565b9060005260206000209060050201600001541461183e5761183e61273b565b60408051828152602081018890529081018690527fafd8780f802588de8705083b0f6a33ac59b8d0228c80f9babe0549c1621c33f89060600160405180910390a195945050505050565b60006001600160e01b031982166380ac58cd60e01b14806118b957506001600160e01b03198216635b5e139f60e01b145b8061059557506301ffc9a760e01b6001600160e01b0319831614610595565b6000818152600260205260409020546001600160a01b03166119375760405162461bcd60e51b8152602060048201526018602482015277115490cdcc8c4e881a5b9d985b1a59081d1bdad95b88125160421b6044820152606401610717565b50565b600081815260046020526040902080546001600160a01b0319166001600160a01b038416908117909155819061196f826109e7565b6001600160a01b03167f8c5be1e5ebec7d5bd14f71427d1e84f3dd0314c0f7b2291e5b200ac8c7c3b92560405160405180910390a45050565b6000806119b4836109e7565b9050806001600160a01b0316846001600160a01b031614806119fb57506001600160a01b0380821660009081526005602090815260408083209388168352929052205460ff165b80611a1f5750836001600160a01b0316611a148461062d565b6001600160a01b0316145b949350505050565b826001600160a01b0316611a3a826109e7565b6001600160a01b031614611a605760405162461bcd60e51b815260040161071790612751565b6001600160a01b038216611ac25760405162461bcd60e51b8152602060048201526024808201527f4552433732313a207472616e7366657220746f20746865207a65726f206164646044820152637265737360e01b6064820152608401610717565b611acf8383836001611cb4565b826001600160a01b0316611ae2826109e7565b6001600160a01b031614611b085760405162461bcd60e51b815260040161071790612751565b600081815260046020908152604080832080546001600160a01b03199081169091556001600160a01b0387811680865260038552838620805460001901905590871680865283862080546001019055868652600290945282852080549092168417909155905184937fddf252ad1be2c89b69c2b068fc378daa952ba7f163c4a11628f55a4df523b3ef91a4505050565b816001600160a01b0316836001600160a01b03161415611bfa5760405162461bcd60e51b815260206004820152601960248201527f4552433732313a20617070726f766520746f2063616c6c6572000000000000006044820152606401610717565b6001600160a01b03838116600081815260056020908152604080832094871680845294825291829020805460ff191686151590811790915591519182527f17307eab39ab6107e8899845ad3d59bd9653f200f220920489ca2b5937696c31910160405180910390a3505050565b611c72848484611a27565b611c7e84848484611de8565b610df05760405162461bcd60e51b815260040161071790612796565b610dba828260405180602001604052806000815250611ef5565b6001811115611d235760405162461bcd60e51b815260206004820152603560248201527f455243373231456e756d657261626c653a20636f6e7365637574697665207472604482015274185b9cd9995c9cc81b9bdd081cdd5c1c1bdc9d1959605a1b6064820152608401610717565b816001600160a01b038516611d7f57611d7a81600880546000838152600960205260408120829055600182018355919091527ff3f7a9fe364faab93b216da50a3214154f22a0a2b415b23a84c8169e8b636ee30155565b611da2565b836001600160a01b0316856001600160a01b031614611da257611da28582611f28565b6001600160a01b038416611dbe57611db981611fc5565b611de1565b846001600160a01b0316846001600160a01b031614611de157611de18482612074565b5050505050565b60006001600160a01b0384163b15611eea57604051630a85bd0160e11b81526001600160a01b0385169063150b7a0290611e2c9033908990889088906004016127e8565b602060405180830381600087803b158015611e4657600080fd5b505af1925050508015611e76575060408051601f3d908101601f19168201909252611e7391810190612825565b60015b611ed0573d808015611ea4576040519150601f19603f3d011682016040523d82523d6000602084013e611ea9565b606091505b508051611ec85760405162461bcd60e51b815260040161071790612796565b805181602001fd5b6001600160e01b031916630a85bd0160e11b149050611a1f565b506001949350505050565b611eff83836120b8565b611f0c6000848484611de8565b6107b85760405162461bcd60e51b815260040161071790612796565b60006001611f3584610a47565b611f3f9190612842565b600083815260076020526040902054909150808214611f92576001600160a01b03841660009081526006602090815260408083208584528252808320548484528184208190558352600790915290208190555b5060009182526007602090815260408084208490556001600160a01b039094168352600681528383209183525290812055565b600854600090611fd790600190612842565b60008381526009602052604081205460088054939450909284908110611fff57611fff6126da565b906000526020600020015490508060088381548110612020576120206126da565b600091825260208083209091019290925582815260099091526040808220849055858252812055600880548061205857612058612867565b6001900381819060005260206000200160009055905550505050565b600061207f83610a47565b6001600160a01b039093166000908152600660209081526040808320868452825280832085905593825260079052919091209190915550565b6001600160a01b03821661210e5760405162461bcd60e51b815260206004820181905260248201527f4552433732313a206d696e7420746f20746865207a65726f20616464726573736044820152606401610717565b6000818152600260205260409020546001600160a01b0316156121735760405162461bcd60e51b815260206004820152601c60248201527f4552433732313a20746f6b656e20616c7265616479206d696e746564000000006044820152606401610717565b612181600083836001611cb4565b6000818152600260205260409020546001600160a01b0316156121e65760405162461bcd60e51b815260206004820152601c60248201527f4552433732313a20746f6b656e20616c7265616479206d696e746564000000006044820152606401610717565b6001600160a01b038216600081815260036020908152604080832080546001019055848352600290915280822080546001600160a01b0319168417905551839291907fddf252ad1be2c89b69c2b068fc378daa952ba7f163c4a11628f55a4df523b3ef908290a45050565b82805461225d90612652565b90600052602060002090601f01602090048101928261227f57600085556122c5565b82601f1061229857805160ff19168380011785556122c5565b828001600101855582156122c5579182015b828111156122c55782518255916020019190600101906122aa565b506122d19291506122d5565b5090565b5b808211156122d157600081556001016122d6565b6001600160e01b03198116811461193757600080fd5b60006020828403121561231257600080fd5b813561231d816122ea565b9392505050565b6000815180845260005b8181101561234a5760208185018101518683018201520161232e565b8181111561235c576000602083870101525b50601f01601f19169290920160200192915050565b60208152600061231d6020830184612324565b60006020828403121561239657600080fd5b5035919050565b6001600160a01b038116811461193757600080fd5b600080604083850312156123c557600080fd5b82356123d08161239d565b946020939093013593505050565b8381526001600160a01b038316602082015260606040820181905260009061240890830184612324565b95945050505050565b60008060006060848603121561242657600080fd5b83356124318161239d565b925060208401356124418161239d565b929592945050506040919091013590565b60006020828403121561246457600080fd5b813561231d8161239d565b6000806040838503121561248257600080fd5b823561248d8161239d565b9150602083013580151581146124a257600080fd5b809150509250929050565b634e487b7160e01b600052604160045260246000fd5b600067ffffffffffffffff808411156124de576124de6124ad565b604051601f8501601f19908116603f01168101908282118183101715612506576125066124ad565b8160405280935085815286868601111561251f57600080fd5b858560208301376000602087830101525050509392505050565b6000806000806080858703121561254f57600080fd5b843561255a8161239d565b9350602085013561256a8161239d565b925060408501359150606085013567ffffffffffffffff81111561258d57600080fd5b8501601f8101871361259e57600080fd5b6125ad878235602084016124c3565b91505092959194509250565b6000602082840312156125cb57600080fd5b813567ffffffffffffffff8111156125e257600080fd5b8201601f810184136125f357600080fd5b611a1f848235602084016124c3565b6000806040838503121561261557600080fd5b82356126208161239d565b915060208301356124a28161239d565b6000806040838503121561264357600080fd5b50508035926020909101359150565b600181811c9082168061266657607f821691505b6020821081141561268757634e487b7160e01b600052602260045260246000fd5b50919050565b6020808252602d908201527f4552433732313a2063616c6c6572206973206e6f7420746f6b656e206f776e6560408201526c1c881bdc88185c1c1c9bdd9959609a1b606082015260800190565b634e487b7160e01b600052603260045260246000fd5b602080825260149082015273125d195b481a5cc8185b1c9958591e481cdbdb1960621b604082015260600190565b60006020828403121561273057600080fd5b815161231d8161239d565b634e487b7160e01b600052600160045260246000fd5b60208082526025908201527f4552433732313a207472616e736665722066726f6d20696e636f72726563742060408201526437bbb732b960d91b606082015260800190565b60208082526032908201527f4552433732313a207472616e7366657220746f206e6f6e20455243373231526560408201527131b2b4bb32b91034b6b83632b6b2b73a32b960711b606082015260800190565b6001600160a01b038581168252841660208201526040810183905260806060820181905260009061281b90830184612324565b9695505050505050565b60006020828403121561283757600080fd5b815161231d816122ea565b60008282101561286257634e487b7160e01b600052601160045260246000fd5b500390565b634e487b7160e01b600052603160045260246000fdfea26469706673582212208f5410c7792ab46a97594169a81dace63eb09e116f1f3f4ed55ce5b3998514f364736f6c63430008090033",
  "linkReferences": {},
  "deployedLinkReferences": {}
}