{
  "_format": "hh-sol-artifact-1",
  "contractName": "ArtMarketplace",
  "sourceName": "contracts/ArtMarketplace.sol",
  "abi": [
    {
      "inputs": [
        {
          "internalType": "contract ArtToken",
          "name": "_token",
          "type": "address"
        }
      ],
      "stateMutability": "nonpayable",
      "type": "constructor"
    },
    {
      "anonymous": false,
      "inputs": [
        {
          "indexed": true,
          "internalType": "address",
          "name": "owner",
          "type": "address"
        },
        {
          "indexed": true,
          "internalType": "address",
          "name": "approved",
          "type": "address"
        },
        {
          "indexed": true,
          "internalType": "uint256",
          "name": "tokenId",
          "type": "uint256"
        }
      ],
      "name": "Approval",
      "type": "event"
    },
    {
      "anonymous": false,
      "inputs": [
        {
          "indexed": true,
          "internalType": "address",
          "name": "owner",
          "type": "address"
        },
        {
          "indexed": true,
          "internalType": "address",
          "name": "operator",
          "type": "address"
        },
        {
          "indexed": false,
          "internalType": "bool",
          "name": "approved",
          "type": "bool"
        }
      ],
      "name": "ApprovalForAll",
      "type": "event"
    },
    {
      "anonymous": false,
      "inputs": [
        {
          "indexed": true,
          "internalType": "address",
          "name": "from",
          "type": "address"
        },
        {
          "indexed": true,
          "internalType": "address",
          "name": "to",
          "type": "address"
        },
        {
          "indexed": true,
          "internalType": "uint256",
          "name": "tokenId",
          "type": "uint256"
        }
      ],
      "name": "Transfer",
      "type": "event"
    },
    {
      "anonymous": false,
      "inputs": [
        {
          "indexed": false,
          "internalType": "uint256",
          "name": "id",
          "type": "uint256"
        },
        {
          "indexed": false,
          "internalType": "uint256",
          "name": "tokenId",
          "type": "uint256"
        },
        {
          "indexed": false,
          "internalType": "uint256",
          "name": "price",
          "type": "uint256"
        }
      ],
      "name": "itemAddedForSale",
      "type": "event"
    },
    {
      "anonymous": false,
      "inputs": [
        {
          "indexed": false,
          "internalType": "uint256",
          "name": "id",
          "type": "uint256"
        },
        {
          "indexed": false,
          "internalType": "address",
          "name": "buyer",
          "type": "address"
        },
        {
          "indexed": false,
          "internalType": "uint256",
          "name": "price",
          "type": "uint256"
        }
      ],
      "name": "itemSold",
      "type": "event"
    },
    {
      "anonymous": false,
      "inputs": [
        {
          "indexed": false,
          "internalType": "uint256",
          "name": "id",
          "type": "uint256"
        },
        {
          "indexed": false,
          "internalType": "address",
          "name": "seller",
          "type": "address"
        }
      ],
      "name": "itemWithdrawn",
      "type": "event"
    },
    {
      "inputs": [
        {
          "internalType": "uint256",
          "name": "",
          "type": "uint256"
        }
      ],
      "name": "activeItems",
      "outputs": [
        {
          "internalType": "bool",
          "name": "",
          "type": "bool"
        }
      ],
      "stateMutability": "view",
      "type": "function"
    },
    {
      "inputs": [
        {
          "internalType": "address",
          "name": "to",
          "type": "address"
        },
        {
          "internalType": "uint256",
          "name": "tokenId",
          "type": "uint256"
        }
      ],
      "name": "approve",
      "outputs": [],
      "stateMutability": "nonpayable",
      "type": "function"
    },
    {
      "inputs": [
        {
          "internalType": "address",
          "name": "owner",
          "type": "address"
        }
      ],
      "name": "balanceOf",
      "outputs": [
        {
          "internalType": "uint256",
          "name": "",
          "type": "uint256"
        }
      ],
      "stateMutability": "view",
      "type": "function"
    },
    {
      "inputs": [
        {
          "internalType": "uint256",
          "name": "id",
          "type": "uint256"
        }
      ],
      "name": "buyItem",
      "outputs": [],
      "stateMutability": "payable",
      "type": "function"
    },
    {
      "inputs": [
        {
          "internalType": "uint256",
          "name": "tokenId",
          "type": "uint256"
        }
      ],
      "name": "getApproved",
      "outputs": [
        {
          "internalType": "address",
          "name": "",
          "type": "address"
        }
      ],
      "stateMutability": "view",
      "type": "function"
    },
    {
      "inputs": [
        {
          "internalType": "address",
          "name": "owner",
          "type": "address"
        },
        {
          "internalType": "address",
          "name": "operator",
          "type": "address"
        }
      ],
      "name": "isApprovedForAll",
      "outputs": [
        {
          "internalType": "bool",
          "name": "",
          "type": "bool"
        }
      ],
      "stateMutability": "view",
      "type": "function"
    },
    {
      "inputs": [
        {
          "internalType": "uint256",
          "name": "",
          "type": "uint256"
        }
      ],
      "name": "items",
      "outputs": [
        {
          "internalType": "address",
          "name": "creator",
          "type": "address"
        },
        {
          "internalType": "string",
          "name": "uri",
          "type": "string"
        }
      ],
      "stateMutability": "view",
      "type": "function"
    },
    {
      "inputs": [
        {
          "internalType": "uint256",
          "name": "",
          "type": "uint256"
        }
      ],
      "name": "itemsForSale",
      "outputs": [
        {
          "internalType": "uint256",
          "name": "id",
          "type": "uint256"
        },
        {
          "internalType": "uint256",
          "name": "tokenId",
          "type": "uint256"
        },
        {
          "internalType": "address payable",
          "name": "seller",
          "type": "address"
        },
        {
          "internalType": "uint256",
          "name": "price",
          "type": "uint256"
        },
        {
          "internalType": "bool",
          "name": "isSold",
          "type": "bool"
        }
      ],
      "stateMutability": "view",
      "type": "function"
    },
    {
      "inputs": [],
      "name": "marketplace",
      "outputs": [
        {
          "internalType": "address",
          "name": "",
          "type": "address"
        }
      ],
      "stateMutability": "view",
      "type": "function"
    },
    {
      "inputs": [
        {
          "internalType": "string",
          "name": "uri",
          "type": "string"
        }
      ],
      "name": "mint",
      "outputs": [
        {
          "internalType": "uint256",
          "name": "",
          "type": "uint256"
        }
      ],
      "stateMutability": "nonpayable",
      "type": "function"
    },
    {
      "inputs": [],
      "name": "name",
      "outputs": [
        {
          "internalType": "string",
          "name": "",
          "type": "string"
        }
      ],
      "stateMutability": "view",
      "type": "function"
    },
    {
      "inputs": [
        {
          "internalType": "uint256",
          "name": "tokenId",
          "type": "uint256"
        }
      ],
      "name": "ownerOf",
      "outputs": [
        {
          "internalType": "address",
          "name": "",
          "type": "address"
        }
      ],
      "stateMutability": "view",
      "type": "function"
    },
    {
      "inputs": [
        {
          "internalType": "uint256",
          "name": "tokenId",
          "type": "uint256"
        },
        {
          "internalType": "uint256",
          "name": "price",
          "type": "uint256"
        }
      ],
      "name": "putItemForSale",
      "outputs": [
        {
          "internalType": "uint256",
          "name": "",
          "type": "uint256"
        }
      ],
      "stateMutability": "nonpayable",
      "type": "function"
    },
    {
      "inputs": [
        {
          "internalType": "address",
          "name": "from",
          "type": "address"
        },
        {
          "internalType": "address",
          "name": "to",
          "type": "address"
        },
        {
          "internalType": "uint256",
          "name": "tokenId",
          "type": "uint256"
        }
      ],
      "name": "safeTransferFrom",
      "outputs": [],
      "stateMutability": "nonpayable",
      "type": "function"
    },
    {
      "inputs": [
        {
          "internalType": "address",
          "name": "from",
          "type": "address"
        },
        {
          "internalType": "address",
          "name": "to",
          "type": "address"
        },
        {
          "internalType": "uint256",
          "name": "tokenId",
          "type": "uint256"
        },
        {
          "internalType": "bytes",
          "name": "data",
          "type": "bytes"
        }
      ],
      "name": "safeTransferFrom",
      "outputs": [],
      "stateMutability": "nonpayable",
      "type": "function"
    },
    {
      "inputs": [
        {
          "internalType": "address",
          "name": "operator",
          "type": "address"
        },
        {
          "internalType": "bool",
          "name": "approved",
          "type": "bool"
        }
      ],
      "name": "setApprovalForAll",
      "outputs": [],
      "stateMutability": "nonpayable",
      "type": "function"
    },
    {
      "inputs": [
        {
          "internalType": "address",
          "name": "market",
          "type": "address"
        }
      ],
      "name": "setMarketplace",
      "outputs": [],
      "stateMutability": "nonpayable",
      "type": "function"
    },
    {
      "inputs": [
        {
          "internalType": "bytes4",
          "name": "interfaceId",
          "type": "bytes4"
        }
      ],
      "name": "supportsInterface",
      "outputs": [
        {
          "internalType": "bool",
          "name": "",
          "type": "bool"
        }
      ],
      "stateMutability": "view",
      "type": "function"
    },
    {
      "inputs": [],
      "name": "symbol",
      "outputs": [
        {
          "internalType": "string",
          "name": "",
          "type": "string"
        }
      ],
      "stateMutability": "view",
      "type": "function"
    },
    {
      "inputs": [
        {
          "internalType": "uint256",
          "name": "index",
          "type": "uint256"
        }
      ],
      "name": "tokenByIndex",
      "outputs": [
        {
          "internalType": "uint256",
          "name": "",
          "type": "uint256"
        }
      ],
      "stateMutability": "view",
      "type": "function"
    },
    {
      "inputs": [
        {
          "internalType": "address",
          "name": "owner",
          "type": "address"
        },
        {
          "internalType": "uint256",
          "name": "index",
          "type": "uint256"
        }
      ],
      "name": "tokenOfOwnerByIndex",
      "outputs": [
        {
          "internalType": "uint256",
          "name": "",
          "type": "uint256"
        }
      ],
      "stateMutability": "view",
      "type": "function"
    },
    {
      "inputs": [
        {
          "internalType": "uint256",
          "name": "tokenId",
          "type": "uint256"
        }
      ],
      "name": "tokenURI",
      "outputs": [
        {
          "internalType": "string",
          "name": "",
          "type": "string"
        }
      ],
      "stateMutability": "view",
      "type": "function"
    },
    {
      "inputs": [],
      "name": "totalItemsForSale",
      "outputs": [
        {
          "internalType": "uint256",
          "name": "",
          "type": "uint256"
        }
      ],
      "stateMutability": "view",
      "type": "function"
    },
    {
      "inputs": [],
      "name": "totalSupply",
      "outputs": [
        {
          "internalType": "uint256",
          "name": "",
          "type": "uint256"
        }
      ],
      "stateMutability": "view",
      "type": "function"
    },
    {
      "inputs": [
        {
          "internalType": "address",
          "name": "from",
          "type": "address"
        },
        {
          "internalType": "address",
          "name": "to",
          "type": "address"
        },
        {
          "internalType": "uint256",
          "name": "tokenId",
          "type": "uint256"
        }
      ],
      "name": "transferFrom",
      "outputs": [],
      "stateMutability": "nonpayable",
      "type": "function"
    },
    {
      "inputs": [
        {
          "internalType": "uint256",
          "name": "id",
          "type": "uint256"
        }
      ],
      "name": "withdrawItem",
      "outputs": [],
      "stateMutability": "nonpayable",
      "type": "function"
    }
  ],
  "bytecode": "0x60806040526001600b553480156200001657600080fd5b5060405162002a9438038062002a9483398101604081905262000039916200016b565b604080518082018252600881526720b93a2a37b5b2b760c11b6020808301918252835180850190945260048452634152544b60e01b9084015281519192916200008591600091620000c5565b5080516200009b906001906020840190620000c5565b5050600d80546001600160a01b0319166001600160a01b03939093169290921790915550620001da565b828054620000d3906200019d565b90600052602060002090601f016020900481019282620000f7576000855562000142565b82601f106200011257805160ff191683800117855562000142565b8280016001018555821562000142579182015b828111156200014257825182559160200191906001019062000125565b506200015092915062000154565b5090565b5b8082111562000150576000815560010162000155565b6000602082840312156200017e57600080fd5b81516001600160a01b03811681146200019657600080fd5b9392505050565b600181811c90821680620001b257607f821691505b60208210811415620001d457634e487b7160e01b600052602260045260246000fd5b50919050565b6128aa80620001ea6000396000f3fe6080604052600436106101815760003560e01c80638d9a3e93116100d1578063bfb231d21161008a578063e7fb74c711610064578063e7fb74c7146104de578063e985e9c5146104f1578063ec8120c91461053a578063f4f357641461054f57600080fd5b8063bfb231d214610470578063c87b56dd1461049e578063d85d3d27146104be57600080fd5b80638d9a3e93146103ab57806395d89b41146103cb5780639c318c7b146103e0578063a22cb46514610410578063abc8c7af14610430578063b88d4fde1461045057600080fd5b806323b872dd1161013e5780634f6ccce7116101185780634f6ccce71461030e5780636352211e1461032e57806370a082311461034e57806373ad6c2d1461036e57600080fd5b806323b872dd146102ae5780632f745c59146102ce57806342842e0e146102ee57600080fd5b806301ffc9a71461018657806306fdde03146101bb578063081812fc146101dd578063092d0afc14610215578063095ea7b31461026d57806318160ddd1461028f575b600080fd5b34801561019257600080fd5b506101a66101a13660046122e3565b61056f565b60405190151581526020015b60405180910390f35b3480156101c757600080fd5b506101d061059a565b6040516101b29190612354565b3480156101e957600080fd5b506101fd6101f8366004612367565b61062c565b6040516001600160a01b0390911681526020016101b2565b34801561022157600080fd5b50610235610230366004612367565b610653565b6040805195865260208601949094526001600160a01b039092169284019290925260608301919091521515608082015260a0016101b2565b34801561027957600080fd5b5061028d610288366004612395565b6106a1565b005b34801561029b57600080fd5b506008545b6040519081526020016101b2565b3480156102ba57600080fd5b5061028d6102c93660046123c1565b6107bc565b3480156102da57600080fd5b506102a06102e9366004612395565b6107ed565b3480156102fa57600080fd5b5061028d6103093660046123c1565b610883565b34801561031a57600080fd5b506102a0610329366004612367565b61089e565b34801561033a57600080fd5b506101fd610349366004612367565b610931565b34801561035a57600080fd5b506102a0610369366004612402565b610991565b34801561037a57600080fd5b5061028d610389366004612402565b600a80546001600160a01b0319166001600160a01b0392909216919091179055565b3480156103b757600080fd5b5061028d6103c6366004612367565b610a17565b3480156103d757600080fd5b506101d0610cea565b3480156103ec57600080fd5b506101a66103fb366004612367565b600f6020526000908152604090205460ff1681565b34801561041c57600080fd5b5061028d61042b36600461241f565b610cf9565b34801561043c57600080fd5b50600a546101fd906001600160a01b031681565b34801561045c57600080fd5b5061028d61046b3660046124e9565b610d08565b34801561047c57600080fd5b5061049061048b366004612367565b610d40565b6040516101b2929190612569565b3480156104aa57600080fd5b506101d06104b9366004612367565b610def565b3480156104ca57600080fd5b506102a06104d936600461258d565b610f11565b61028d6104ec366004612367565b610faa565b3480156104fd57600080fd5b506101a661050c3660046125d6565b6001600160a01b03918216600090815260056020908152604080832093909416825291909152205460ff1690565b34801561054657600080fd5b50600e546102a0565b34801561055b57600080fd5b506102a061056a366004612604565b611458565b60006001600160e01b0319821663780e9d6360e01b148061059457506105948261186b565b92915050565b6060600080546105a990612626565b80601f01602080910402602001604051908101604052809291908181526020018280546105d590612626565b80156106225780601f106105f757610100808354040283529160200191610622565b820191906000526020600020905b81548152906001019060200180831161060557829003601f168201915b5050505050905090565b6000610637826118bb565b506000908152600460205260409020546001600160a01b031690565b600e818154811061066357600080fd5b60009182526020909120600590910201805460018201546002830154600384015460049094015492945090926001600160a01b039091169160ff1685565b60006106ac82610931565b9050806001600160a01b0316836001600160a01b0316141561071f5760405162461bcd60e51b815260206004820152602160248201527f4552433732313a20617070726f76616c20746f2063757272656e74206f776e656044820152603960f91b60648201526084015b60405180910390fd5b336001600160a01b038216148061073b575061073b813361050c565b6107ad5760405162461bcd60e51b815260206004820152603d60248201527f4552433732313a20617070726f76652063616c6c6572206973206e6f7420746f60448201527f6b656e206f776e6572206f7220617070726f76656420666f7220616c6c0000006064820152608401610716565b6107b7838361191d565b505050565b6107c6338261198b565b6107e25760405162461bcd60e51b815260040161071690612661565b6107b7838383611a0a565b60006107f883610991565b821061085a5760405162461bcd60e51b815260206004820152602b60248201527f455243373231456e756d657261626c653a206f776e657220696e646578206f7560448201526a74206f6620626f756e647360a81b6064820152608401610716565b506001600160a01b03919091166000908152600660209081526040808320938352929052205490565b6107b783838360405180602001604052806000815250610d08565b60006108a960085490565b821061090c5760405162461bcd60e51b815260206004820152602c60248201527f455243373231456e756d657261626c653a20676c6f62616c20696e646578206f60448201526b7574206f6620626f756e647360a01b6064820152608401610716565b6008828154811061091f5761091f6126ae565b90600052602060002001549050919050565b6000818152600260205260408120546001600160a01b0316806105945760405162461bcd60e51b8152602060048201526018602482015277115490cdcc8c4e881a5b9d985b1a59081d1bdad95b88125160421b6044820152606401610716565b60006001600160a01b0382166109fb5760405162461bcd60e51b815260206004820152602960248201527f4552433732313a2061646472657373207a65726f206973206e6f7420612076616044820152683634b21037bbb732b960b91b6064820152608401610716565b506001600160a01b031660009081526003602052604090205490565b600e54819081108015610a4d575080600e8281548110610a3957610a396126ae565b906000526020600020906005020160000154145b610a8f5760405162461bcd60e51b8152602060048201526013602482015272436f756c64206e6f742066696e64206974656d60681b6044820152606401610716565b81600e8181548110610aa357610aa36126ae565b60009182526020909120600590910201600201546001600160a01b03163314610b1a5760405162461bcd60e51b815260206004820152602360248201527f596f7520617265206e6f74207468652073656c6c6572206f662074686973206960448201526274656d60e81b6064820152608401610716565b600e8181548110610b2d57610b2d6126ae565b600091825260209091206004600590920201015460ff1615610b615760405162461bcd60e51b8152600401610716906126c4565b600e8381548110610b7457610b746126ae565b600091825260209091206004600590920201015460ff1615610ba85760405162461bcd60e51b8152600401610716906126c4565b6000600f6000600e8681548110610bc157610bc16126ae565b906000526020600020906005020160010154815260200190815260200160002060006101000a81548160ff021916908315150217905550600d60009054906101000a90046001600160a01b03166001600160a01b03166342842e0e3033600e8781548110610c3157610c316126ae565b60009182526020909120600160059092020101546040516001600160e01b031960e086901b1681526001600160a01b0393841660048201529290911660248301526044820152606401600060405180830381600087803b158015610c9457600080fd5b505af1158015610ca8573d6000803e3d6000fd5b5050604080518681523360208201527f4bf33f6d9cc0e1cdd0d8c902e8ff725e834636cc2875597843004148765cd78f935001905060405180910390a1505050565b6060600180546105a990612626565b610d04338383611b7b565b5050565b610d12338361198b565b610d2e5760405162461bcd60e51b815260040161071690612661565b610d3a84848484611c4a565b50505050565b600c60205260009081526040902080546001820180546001600160a01b039092169291610d6c90612626565b80601f0160208091040260200160405190810160405280929190818152602001828054610d9890612626565b8015610de55780601f10610dba57610100808354040283529160200191610de5565b820191906000526020600020905b815481529060010190602001808311610dc857829003601f168201915b5050505050905082565b6000818152600260205260409020546060906001600160a01b0316610e705760405162461bcd60e51b815260206004820152603160248201527f45524337323155524953746f726167653a2055524920717565727920666f72206044820152703737b732bc34b9ba32b73a103a37b5b2b760791b6064820152608401610716565b6000828152600c602052604090206001018054610e8c90612626565b80601f0160208091040260200160405190810160405280929190818152602001828054610eb890612626565b8015610f055780601f10610eda57610100808354040283529160200191610f05565b820191906000526020600020905b815481529060010190602001808311610ee857829003601f168201915b50505050509050919050565b600b54600090610f213382611c7d565b600a54610f37906001600160a01b0316826106a1565b60408051808201825233815260208082018681526000858152600c835293909320825181546001600160a01b0319166001600160a01b0390911617815592518051929392610f8b9260018501920190612234565b5050600b805491506000610f9e83612708565b90915550909392505050565b600e54819081108015610fe0575080600e8281548110610fcc57610fcc6126ae565b906000526020600020906005020160000154145b6110225760405162461bcd60e51b8152602060048201526013602482015272436f756c64206e6f742066696e64206974656d60681b6044820152606401610716565b81600e8181548110611036576110366126ae565b600091825260209091206004600590920201015460ff161561106a5760405162461bcd60e51b8152600401610716906126c4565b600e838154811061107d5761107d6126ae565b6000918252602090912060059091020160010154600d5460405163020604bf60e21b81526004810183905230916001600160a01b03169063081812fc9060240160206040518083038186803b1580156110d557600080fd5b505afa1580156110e9573d6000803e3d6000fd5b505050506040513d601f19601f8201168201806040525081019061110d9190612723565b6001600160a01b03161461115c5760405162461bcd60e51b815260206004820152601660248201527513585c9ad95d081a5cc81b9bdd08185c1c1c9bdd995960521b6044820152606401610716565b600e848154811061116f5761116f6126ae565b9060005260206000209060050201600301543410156111c85760405162461bcd60e51b8152602060048201526015602482015274139bdd08195b9bdd59da08199d5b991cc81cd95b9d605a1b6044820152606401610716565b600e84815481106111db576111db6126ae565b60009182526020909120600590910201600201546001600160a01b031633141561120457600080fd5b6001600e8581548110611219576112196126ae565b906000526020600020906005020160040160006101000a81548160ff0219169083151502179055506000600f6000600e878154811061125a5761125a6126ae565b906000526020600020906005020160010154815260200190815260200160002060006101000a81548160ff021916908315150217905550600d60009054906101000a90046001600160a01b03166001600160a01b03166342842e0e600e86815481106112c8576112c86126ae565b906000526020600020906005020160020160009054906101000a90046001600160a01b031633600e8881548110611301576113016126ae565b60009182526020909120600160059092020101546040516001600160e01b031960e086901b1681526001600160a01b0393841660048201529290911660248301526044820152606401600060405180830381600087803b15801561136457600080fd5b505af1158015611378573d6000803e3d6000fd5b50505050600e848154811061138f5761138f6126ae565b600091825260208220600260059092020101546040516001600160a01b03909116913480156108fc02929091818181858888f193505050501580156113d8573d6000803e3d6000fd5b507f8164c6f8917e418c49813e4586897c7067de5a886aa1bea980cd11fa57d482648433600e878154811061140f5761140f6126ae565b90600052602060002090600502016003015460405161144a939291909283526001600160a01b03919091166020830152604082015260600190565b60405180910390a150505050565b600d546040516331a9108f60e11b815260048101849052600091849133916001600160a01b031690636352211e9060240160206040518083038186803b1580156114a157600080fd5b505afa1580156114b5573d6000803e3d6000fd5b505050506040513d601f19601f820116820180604052508101906114d99190612723565b6001600160a01b03161461152f5760405162461bcd60e51b815260206004820152601c60248201527f53656e64657220646f6573206e6f74206f776e20746865206974656d000000006044820152606401610716565b600d5460405163020604bf60e21b815260048101869052859130916001600160a01b039091169063081812fc9060240160206040518083038186803b15801561157757600080fd5b505afa15801561158b573d6000803e3d6000fd5b505050506040513d601f19601f820116820180604052508101906115af9190612723565b6001600160a01b0316146115fe5760405162461bcd60e51b815260206004820152601660248201527513585c9ad95d081a5cc81b9bdd08185c1c1c9bdd995960521b6044820152606401610716565b600e541561164e5760405162461bcd60e51b815260206004820152601860248201527f42696464696e67206973206e6f7420737570706f7274656400000000000000006044820152606401610716565b6000858152600f602052604090205460ff16156116ad5760405162461bcd60e51b815260206004820152601b60248201527f4974656d20697320616c726561647920757020666f722073616c6500000000006044820152606401610716565b600e80546040805160a08101825282815260208082018a815233838501908152606084018b81526000608086018181526001808a018b558a8352965160058a027fbb7b4a454dc3493923482f07822329ed19e8244eff582cc204f8554c3620c3fd81019190915594517fbb7b4a454dc3493923482f07822329ed19e8244eff582cc204f8554c3620c3fe86015592517fbb7b4a454dc3493923482f07822329ed19e8244eff582cc204f8554c3620c3ff850180546001600160a01b03929092166001600160a01b031990921691909117905590517fbb7b4a454dc3493923482f07822329ed19e8244eff582cc204f8554c3620c40084015590517fbb7b4a454dc3493923482f07822329ed19e8244eff582cc204f8554c3620c401909201805492151560ff199384161790558b8152600f909252929020805490921617905581549091829182908110611802576118026126ae565b9060005260206000209060050201600001541461182157611821612740565b60408051828152602081018890529081018690527fafd8780f802588de8705083b0f6a33ac59b8d0228c80f9babe0549c1621c33f89060600160405180910390a195945050505050565b60006001600160e01b031982166380ac58cd60e01b148061189c57506001600160e01b03198216635b5e139f60e01b145b8061059457506301ffc9a760e01b6001600160e01b0319831614610594565b6000818152600260205260409020546001600160a01b031661191a5760405162461bcd60e51b8152602060048201526018602482015277115490cdcc8c4e881a5b9d985b1a59081d1bdad95b88125160421b6044820152606401610716565b50565b600081815260046020526040902080546001600160a01b0319166001600160a01b038416908117909155819061195282610931565b6001600160a01b03167f8c5be1e5ebec7d5bd14f71427d1e84f3dd0314c0f7b2291e5b200ac8c7c3b92560405160405180910390a45050565b60008061199783610931565b9050806001600160a01b0316846001600160a01b031614806119de57506001600160a01b0380821660009081526005602090815260408083209388168352929052205460ff165b80611a025750836001600160a01b03166119f78461062c565b6001600160a01b0316145b949350505050565b826001600160a01b0316611a1d82610931565b6001600160a01b031614611a435760405162461bcd60e51b815260040161071690612756565b6001600160a01b038216611aa55760405162461bcd60e51b8152602060048201526024808201527f4552433732313a207472616e7366657220746f20746865207a65726f206164646044820152637265737360e01b6064820152608401610716565b611ab28383836001611c97565b826001600160a01b0316611ac582610931565b6001600160a01b031614611aeb5760405162461bcd60e51b815260040161071690612756565b600081815260046020908152604080832080546001600160a01b03199081169091556001600160a01b0387811680865260038552838620805460001901905590871680865283862080546001019055868652600290945282852080549092168417909155905184937fddf252ad1be2c89b69c2b068fc378daa952ba7f163c4a11628f55a4df523b3ef91a4505050565b816001600160a01b0316836001600160a01b03161415611bdd5760405162461bcd60e51b815260206004820152601960248201527f4552433732313a20617070726f766520746f2063616c6c6572000000000000006044820152606401610716565b6001600160a01b03838116600081815260056020908152604080832094871680845294825291829020805460ff191686151590811790915591519182527f17307eab39ab6107e8899845ad3d59bd9653f200f220920489ca2b5937696c31910160405180910390a3505050565b611c55848484611a0a565b611c6184848484611dcb565b610d3a5760405162461bcd60e51b81526004016107169061279b565b610d04828260405180602001604052806000815250611ed8565b6001811115611d065760405162461bcd60e51b815260206004820152603560248201527f455243373231456e756d657261626c653a20636f6e7365637574697665207472604482015274185b9cd9995c9cc81b9bdd081cdd5c1c1bdc9d1959605a1b6064820152608401610716565b816001600160a01b038516611d6257611d5d81600880546000838152600960205260408120829055600182018355919091527ff3f7a9fe364faab93b216da50a3214154f22a0a2b415b23a84c8169e8b636ee30155565b611d85565b836001600160a01b0316856001600160a01b031614611d8557611d858582611f0b565b6001600160a01b038416611da157611d9c81611fa8565b611dc4565b846001600160a01b0316846001600160a01b031614611dc457611dc48482612057565b5050505050565b60006001600160a01b0384163b15611ecd57604051630a85bd0160e11b81526001600160a01b0385169063150b7a0290611e0f9033908990889088906004016127ed565b602060405180830381600087803b158015611e2957600080fd5b505af1925050508015611e59575060408051601f3d908101601f19168201909252611e569181019061282a565b60015b611eb3573d808015611e87576040519150601f19603f3d011682016040523d82523d6000602084013e611e8c565b606091505b508051611eab5760405162461bcd60e51b81526004016107169061279b565b805181602001fd5b6001600160e01b031916630a85bd0160e11b149050611a02565b506001949350505050565b611ee2838361209b565b611eef6000848484611dcb565b6107b75760405162461bcd60e51b81526004016107169061279b565b60006001611f1884610991565b611f229190612847565b600083815260076020526040902054909150808214611f75576001600160a01b03841660009081526006602090815260408083208584528252808320548484528184208190558352600790915290208190555b5060009182526007602090815260408084208490556001600160a01b039094168352600681528383209183525290812055565b600854600090611fba90600190612847565b60008381526009602052604081205460088054939450909284908110611fe257611fe26126ae565b906000526020600020015490508060088381548110612003576120036126ae565b600091825260208083209091019290925582815260099091526040808220849055858252812055600880548061203b5761203b61285e565b6001900381819060005260206000200160009055905550505050565b600061206283610991565b6001600160a01b039093166000908152600660209081526040808320868452825280832085905593825260079052919091209190915550565b6001600160a01b0382166120f15760405162461bcd60e51b815260206004820181905260248201527f4552433732313a206d696e7420746f20746865207a65726f20616464726573736044820152606401610716565b6000818152600260205260409020546001600160a01b0316156121565760405162461bcd60e51b815260206004820152601c60248201527f4552433732313a20746f6b656e20616c7265616479206d696e746564000000006044820152606401610716565b612164600083836001611c97565b6000818152600260205260409020546001600160a01b0316156121c95760405162461bcd60e51b815260206004820152601c60248201527f4552433732313a20746f6b656e20616c7265616479206d696e746564000000006044820152606401610716565b6001600160a01b038216600081815260036020908152604080832080546001019055848352600290915280822080546001600160a01b0319168417905551839291907fddf252ad1be2c89b69c2b068fc378daa952ba7f163c4a11628f55a4df523b3ef908290a45050565b82805461224090612626565b90600052602060002090601f01602090048101928261226257600085556122a8565b82601f1061227b57805160ff19168380011785556122a8565b828001600101855582156122a8579182015b828111156122a857825182559160200191906001019061228d565b506122b49291506122b8565b5090565b5b808211156122b457600081556001016122b9565b6001600160e01b03198116811461191a57600080fd5b6000602082840312156122f557600080fd5b8135612300816122cd565b9392505050565b6000815180845260005b8181101561232d57602081850181015186830182015201612311565b8181111561233f576000602083870101525b50601f01601f19169290920160200192915050565b6020815260006123006020830184612307565b60006020828403121561237957600080fd5b5035919050565b6001600160a01b038116811461191a57600080fd5b600080604083850312156123a857600080fd5b82356123b381612380565b946020939093013593505050565b6000806000606084860312156123d657600080fd5b83356123e181612380565b925060208401356123f181612380565b929592945050506040919091013590565b60006020828403121561241457600080fd5b813561230081612380565b6000806040838503121561243257600080fd5b823561243d81612380565b91506020830135801515811461245257600080fd5b809150509250929050565b634e487b7160e01b600052604160045260246000fd5b600067ffffffffffffffff8084111561248e5761248e61245d565b604051601f8501601f19908116603f011681019082821181831017156124b6576124b661245d565b816040528093508581528686860111156124cf57600080fd5b858560208301376000602087830101525050509392505050565b600080600080608085870312156124ff57600080fd5b843561250a81612380565b9350602085013561251a81612380565b925060408501359150606085013567ffffffffffffffff81111561253d57600080fd5b8501601f8101871361254e57600080fd5b61255d87823560208401612473565b91505092959194509250565b6001600160a01b0383168152604060208201819052600090611a0290830184612307565b60006020828403121561259f57600080fd5b813567ffffffffffffffff8111156125b657600080fd5b8201601f810184136125c757600080fd5b611a0284823560208401612473565b600080604083850312156125e957600080fd5b82356125f481612380565b9150602083013561245281612380565b6000806040838503121561261757600080fd5b50508035926020909101359150565b600181811c9082168061263a57607f821691505b6020821081141561265b57634e487b7160e01b600052602260045260246000fd5b50919050565b6020808252602d908201527f4552433732313a2063616c6c6572206973206e6f7420746f6b656e206f776e6560408201526c1c881bdc88185c1c1c9bdd9959609a1b606082015260800190565b634e487b7160e01b600052603260045260246000fd5b602080825260149082015273125d195b481a5cc8185b1c9958591e481cdbdb1960621b604082015260600190565b634e487b7160e01b600052601160045260246000fd5b600060001982141561271c5761271c6126f2565b5060010190565b60006020828403121561273557600080fd5b815161230081612380565b634e487b7160e01b600052600160045260246000fd5b60208082526025908201527f4552433732313a207472616e736665722066726f6d20696e636f72726563742060408201526437bbb732b960d91b606082015260800190565b60208082526032908201527f4552433732313a207472616e7366657220746f206e6f6e20455243373231526560408201527131b2b4bb32b91034b6b83632b6b2b73a32b960711b606082015260800190565b6001600160a01b038581168252841660208201526040810183905260806060820181905260009061282090830184612307565b9695505050505050565b60006020828403121561283c57600080fd5b8151612300816122cd565b600082821015612859576128596126f2565b500390565b634e487b7160e01b600052603160045260246000fdfea26469706673582212206156cbb318330790bddae4d74561601ab5e57540f291682c8a9583bbb5a99b7964736f6c63430008090033",
  "linkReferences": {},
  "deployedLinkReferences": {}
}