{
  "_format": "hh-sol-artifact-1",
  "contractName": "ArtToken",
  "sourceName": "contracts/ArtToken.sol",
  "abi": [
    {
      "inputs": [],
      "stateMutability": "nonpayable",
      "type": "constructor"
    },
    {
      "anonymous": false,
      "inputs": [
        {
          "indexed": true,
          "internalType": "address",
          "name": "owner",
          "type": "address"
        },
        {
          "indexed": true,
          "internalType": "address",
          "name": "approved",
          "type": "address"
        },
        {
          "indexed": true,
          "internalType": "uint256",
          "name": "tokenId",
          "type": "uint256"
        }
      ],
      "name": "Approval",
      "type": "event"
    },
    {
      "anonymous": false,
      "inputs": [
        {
          "indexed": true,
          "internalType": "address",
          "name": "owner",
          "type": "address"
        },
        {
          "indexed": true,
          "internalType": "address",
          "name": "operator",
          "type": "address"
        },
        {
          "indexed": false,
          "internalType": "bool",
          "name": "approved",
          "type": "bool"
        }
      ],
      "name": "ApprovalForAll",
      "type": "event"
    },
    {
      "anonymous": false,
      "inputs": [
        {
          "indexed": true,
          "internalType": "address",
          "name": "from",
          "type": "address"
        },
        {
          "indexed": true,
          "internalType": "address",
          "name": "to",
          "type": "address"
        },
        {
          "indexed": true,
          "internalType": "uint256",
          "name": "tokenId",
          "type": "uint256"
        }
      ],
      "name": "Transfer",
      "type": "event"
    },
    {
      "inputs": [
        {
          "internalType": "uint256",
          "name": "",
          "type": "uint256"
        }
      ],
      "name": "Items",
      "outputs": [
        {
          "internalType": "uint256",
          "name": "id",
          "type": "uint256"
        },
        {
          "internalType": "address",
          "name": "creator",
          "type": "address"
        },
        {
          "internalType": "string",
          "name": "uri",
          "type": "string"
        }
      ],
      "stateMutability": "view",
      "type": "function"
    },
    {
      "inputs": [
        {
          "internalType": "address",
          "name": "to",
          "type": "address"
        },
        {
          "internalType": "uint256",
          "name": "tokenId",
          "type": "uint256"
        }
      ],
      "name": "approve",
      "outputs": [],
      "stateMutability": "nonpayable",
      "type": "function"
    },
    {
      "inputs": [
        {
          "internalType": "address",
          "name": "owner",
          "type": "address"
        }
      ],
      "name": "balanceOf",
      "outputs": [
        {
          "internalType": "uint256",
          "name": "",
          "type": "uint256"
        }
      ],
      "stateMutability": "view",
      "type": "function"
    },
    {
      "inputs": [
        {
          "internalType": "uint256",
          "name": "tokenId",
          "type": "uint256"
        }
      ],
      "name": "getApproved",
      "outputs": [
        {
          "internalType": "address",
          "name": "",
          "type": "address"
        }
      ],
      "stateMutability": "view",
      "type": "function"
    },
    {
      "inputs": [
        {
          "internalType": "address",
          "name": "owner",
          "type": "address"
        },
        {
          "internalType": "address",
          "name": "operator",
          "type": "address"
        }
      ],
      "name": "isApprovedForAll",
      "outputs": [
        {
          "internalType": "bool",
          "name": "",
          "type": "bool"
        }
      ],
      "stateMutability": "view",
      "type": "function"
    },
    {
      "inputs": [],
      "name": "marketplace",
      "outputs": [
        {
          "internalType": "address",
          "name": "",
          "type": "address"
        }
      ],
      "stateMutability": "view",
      "type": "function"
    },
    {
      "inputs": [
        {
          "internalType": "string",
          "name": "uri",
          "type": "string"
        }
      ],
      "name": "mint",
      "outputs": [
        {
          "internalType": "uint256",
          "name": "",
          "type": "uint256"
        }
      ],
      "stateMutability": "nonpayable",
      "type": "function"
    },
    {
      "inputs": [],
      "name": "name",
      "outputs": [
        {
          "internalType": "string",
          "name": "",
          "type": "string"
        }
      ],
      "stateMutability": "view",
      "type": "function"
    },
    {
      "inputs": [
        {
          "internalType": "uint256",
          "name": "tokenId",
          "type": "uint256"
        }
      ],
      "name": "ownerOf",
      "outputs": [
        {
          "internalType": "address",
          "name": "",
          "type": "address"
        }
      ],
      "stateMutability": "view",
      "type": "function"
    },
    {
      "inputs": [
        {
          "internalType": "address",
          "name": "from",
          "type": "address"
        },
        {
          "internalType": "address",
          "name": "to",
          "type": "address"
        },
        {
          "internalType": "uint256",
          "name": "tokenId",
          "type": "uint256"
        }
      ],
      "name": "safeTransferFrom",
      "outputs": [],
      "stateMutability": "nonpayable",
      "type": "function"
    },
    {
      "inputs": [
        {
          "internalType": "address",
          "name": "from",
          "type": "address"
        },
        {
          "internalType": "address",
          "name": "to",
          "type": "address"
        },
        {
          "internalType": "uint256",
          "name": "tokenId",
          "type": "uint256"
        },
        {
          "internalType": "bytes",
          "name": "data",
          "type": "bytes"
        }
      ],
      "name": "safeTransferFrom",
      "outputs": [],
      "stateMutability": "nonpayable",
      "type": "function"
    },
    {
      "inputs": [
        {
          "internalType": "address",
          "name": "operator",
          "type": "address"
        },
        {
          "internalType": "bool",
          "name": "approved",
          "type": "bool"
        }
      ],
      "name": "setApprovalForAll",
      "outputs": [],
      "stateMutability": "nonpayable",
      "type": "function"
    },
    {
      "inputs": [
        {
          "internalType": "address",
          "name": "market",
          "type": "address"
        }
      ],
      "name": "setMarketplace",
      "outputs": [],
      "stateMutability": "nonpayable",
      "type": "function"
    },
    {
      "inputs": [
        {
          "internalType": "bytes4",
          "name": "interfaceId",
          "type": "bytes4"
        }
      ],
      "name": "supportsInterface",
      "outputs": [
        {
          "internalType": "bool",
          "name": "",
          "type": "bool"
        }
      ],
      "stateMutability": "view",
      "type": "function"
    },
    {
      "inputs": [],
      "name": "symbol",
      "outputs": [
        {
          "internalType": "string",
          "name": "",
          "type": "string"
        }
      ],
      "stateMutability": "view",
      "type": "function"
    },
    {
      "inputs": [
        {
          "internalType": "uint256",
          "name": "index",
          "type": "uint256"
        }
      ],
      "name": "tokenByIndex",
      "outputs": [
        {
          "internalType": "uint256",
          "name": "",
          "type": "uint256"
        }
      ],
      "stateMutability": "view",
      "type": "function"
    },
    {
      "inputs": [
        {
          "internalType": "address",
          "name": "owner",
          "type": "address"
        },
        {
          "internalType": "uint256",
          "name": "index",
          "type": "uint256"
        }
      ],
      "name": "tokenOfOwnerByIndex",
      "outputs": [
        {
          "internalType": "uint256",
          "name": "",
          "type": "uint256"
        }
      ],
      "stateMutability": "view",
      "type": "function"
    },
    {
      "inputs": [
        {
          "internalType": "uint256",
          "name": "tokenId",
          "type": "uint256"
        }
      ],
      "name": "tokenURI",
      "outputs": [
        {
          "internalType": "string",
          "name": "",
          "type": "string"
        }
      ],
      "stateMutability": "view",
      "type": "function"
    },
    {
      "inputs": [],
      "name": "totalSupply",
      "outputs": [
        {
          "internalType": "uint256",
          "name": "",
          "type": "uint256"
        }
      ],
      "stateMutability": "view",
      "type": "function"
    },
    {
      "inputs": [
        {
          "internalType": "address",
          "name": "from",
          "type": "address"
        },
        {
          "internalType": "address",
          "name": "to",
          "type": "address"
        },
        {
          "internalType": "uint256",
          "name": "tokenId",
          "type": "uint256"
        }
      ],
      "name": "transferFrom",
      "outputs": [],
      "stateMutability": "nonpayable",
      "type": "function"
    }
  ],
  "bytecode": "0x60806040523480156200001157600080fd5b50604080518082018252600881526720b93a2a37b5b2b760c11b6020808301918252835180850190945260048452634152544b60e01b9084015281519192916200005e916000916200007d565b508051620000749060019060208401906200007d565b50505062000160565b8280546200008b9062000123565b90600052602060002090601f016020900481019282620000af5760008555620000fa565b82601f10620000ca57805160ff1916838001178555620000fa565b82800160010185558215620000fa579182015b82811115620000fa578251825591602001919060010190620000dd565b50620001089291506200010c565b5090565b5b808211156200010857600081556001016200010d565b600181811c908216806200013857607f821691505b602082108114156200015a57634e487b7160e01b600052602260045260246000fd5b50919050565b611a0280620001706000396000f3fe608060405234801561001057600080fd5b506004361061012c5760003560e01c80636352211e116100ad578063abc8c7af11610071578063abc8c7af1461029f578063b88d4fde146102b2578063c87b56dd146102c5578063d85d3d27146102d8578063e985e9c5146102eb57600080fd5b80636352211e1461022e57806370a082311461024157806373ad6c2d1461025457806395d89b4114610284578063a22cb4651461028c57600080fd5b806318160ddd116100f457806318160ddd146101d057806323b872dd146101e25780632f745c59146101f557806342842e0e146102085780634f6ccce71461021b57600080fd5b806301ffc9a71461013157806306fdde0314610159578063081812fc1461016e578063095ea7b31461019957806317b47cc4146101ae575b600080fd5b61014461013f3660046114d5565b610327565b60405190151581526020015b60405180910390f35b610161610352565b6040516101509190611546565b61018161017c366004611559565b6103e4565b6040516001600160a01b039091168152602001610150565b6101ac6101a736600461158e565b61040b565b005b6101c16101bc366004611559565b610526565b604051610150939291906115b8565b6008545b604051908152602001610150565b6101ac6101f03660046115eb565b6105db565b6101d461020336600461158e565b61060c565b6101ac6102163660046115eb565b6106a2565b6101d4610229366004611559565b6106bd565b61018161023c366004611559565b610750565b6101d461024f366004611627565b6107b0565b6101ac610262366004611627565b600b80546001600160a01b0319166001600160a01b0392909216919091179055565b610161610836565b6101ac61029a366004611642565b610845565b600b54610181906001600160a01b031681565b6101ac6102c036600461170a565b610854565b6101616102d3366004611559565b61088c565b6101d46102e6366004611786565b6109ae565b6101446102f93660046117cf565b6001600160a01b03918216600090815260056020908152604080832093909416825291909152205460ff1690565b60006001600160e01b0319821663780e9d6360e01b148061034c575061034c82610a5d565b92915050565b60606000805461036190611802565b80601f016020809104026020016040519081016040528092919081815260200182805461038d90611802565b80156103da5780601f106103af576101008083540402835291602001916103da565b820191906000526020600020905b8154815290600101906020018083116103bd57829003601f168201915b5050505050905090565b60006103ef82610aad565b506000908152600460205260409020546001600160a01b031690565b600061041682610750565b9050806001600160a01b0316836001600160a01b031614156104895760405162461bcd60e51b815260206004820152602160248201527f4552433732313a20617070726f76616c20746f2063757272656e74206f776e656044820152603960f91b60648201526084015b60405180910390fd5b336001600160a01b03821614806104a557506104a581336102f9565b6105175760405162461bcd60e51b815260206004820152603d60248201527f4552433732313a20617070726f76652063616c6c6572206973206e6f7420746f60448201527f6b656e206f776e6572206f7220617070726f76656420666f7220616c6c0000006064820152608401610480565b6105218383610b0f565b505050565b600c6020526000908152604090208054600182015460028301805492936001600160a01b039092169261055890611802565b80601f016020809104026020016040519081016040528092919081815260200182805461058490611802565b80156105d15780601f106105a6576101008083540402835291602001916105d1565b820191906000526020600020905b8154815290600101906020018083116105b457829003601f168201915b5050505050905083565b6105e53382610b7d565b6106015760405162461bcd60e51b81526004016104809061183d565b610521838383610bfc565b6000610617836107b0565b82106106795760405162461bcd60e51b815260206004820152602b60248201527f455243373231456e756d657261626c653a206f776e657220696e646578206f7560448201526a74206f6620626f756e647360a81b6064820152608401610480565b506001600160a01b03919091166000908152600660209081526040808320938352929052205490565b61052183838360405180602001604052806000815250610854565b60006106c860085490565b821061072b5760405162461bcd60e51b815260206004820152602c60248201527f455243373231456e756d657261626c653a20676c6f62616c20696e646578206f60448201526b7574206f6620626f756e647360a01b6064820152608401610480565b6008828154811061073e5761073e61188a565b90600052602060002001549050919050565b6000818152600260205260408120546001600160a01b03168061034c5760405162461bcd60e51b8152602060048201526018602482015277115490cdcc8c4e881a5b9d985b1a59081d1bdad95b88125160421b6044820152606401610480565b60006001600160a01b03821661081a5760405162461bcd60e51b815260206004820152602960248201527f4552433732313a2061646472657373207a65726f206973206e6f7420612076616044820152683634b21037bbb732b960b91b6064820152608401610480565b506001600160a01b031660009081526003602052604090205490565b60606001805461036190611802565b610850338383610d6d565b5050565b61085e3383610b7d565b61087a5760405162461bcd60e51b81526004016104809061183d565b61088684848484610e3c565b50505050565b6000818152600260205260409020546060906001600160a01b031661090d5760405162461bcd60e51b815260206004820152603160248201527f45524337323155524953746f726167653a2055524920717565727920666f72206044820152703737b732bc34b9ba32b73a103a37b5b2b760791b6064820152608401610480565b6000828152600c60205260409020600201805461092990611802565b80601f016020809104026020016040519081016040528092919081815260200182805461095590611802565b80156109a25780601f10610977576101008083540402835291602001916109a2565b820191906000526020600020905b81548152906001019060200180831161098557829003601f168201915b50505050509050919050565b60006109be600a80546001019055565b60006109c9600a5490565b90506109d53382610e6f565b600b546109eb906001600160a01b03168261040b565b604080516060810182528281523360208083019182528284018781526000868152600c8352949094208351815591516001830180546001600160a01b0319166001600160a01b039092169190911790559251805192939192610a539260028501920190611426565b5091949350505050565b60006001600160e01b031982166380ac58cd60e01b1480610a8e57506001600160e01b03198216635b5e139f60e01b145b8061034c57506301ffc9a760e01b6001600160e01b031983161461034c565b6000818152600260205260409020546001600160a01b0316610b0c5760405162461bcd60e51b8152602060048201526018602482015277115490cdcc8c4e881a5b9d985b1a59081d1bdad95b88125160421b6044820152606401610480565b50565b600081815260046020526040902080546001600160a01b0319166001600160a01b0384169081179091558190610b4482610750565b6001600160a01b03167f8c5be1e5ebec7d5bd14f71427d1e84f3dd0314c0f7b2291e5b200ac8c7c3b92560405160405180910390a45050565b600080610b8983610750565b9050806001600160a01b0316846001600160a01b03161480610bd057506001600160a01b0380821660009081526005602090815260408083209388168352929052205460ff165b80610bf45750836001600160a01b0316610be9846103e4565b6001600160a01b0316145b949350505050565b826001600160a01b0316610c0f82610750565b6001600160a01b031614610c355760405162461bcd60e51b8152600401610480906118a0565b6001600160a01b038216610c975760405162461bcd60e51b8152602060048201526024808201527f4552433732313a207472616e7366657220746f20746865207a65726f206164646044820152637265737360e01b6064820152608401610480565b610ca48383836001610e89565b826001600160a01b0316610cb782610750565b6001600160a01b031614610cdd5760405162461bcd60e51b8152600401610480906118a0565b600081815260046020908152604080832080546001600160a01b03199081169091556001600160a01b0387811680865260038552838620805460001901905590871680865283862080546001019055868652600290945282852080549092168417909155905184937fddf252ad1be2c89b69c2b068fc378daa952ba7f163c4a11628f55a4df523b3ef91a4505050565b816001600160a01b0316836001600160a01b03161415610dcf5760405162461bcd60e51b815260206004820152601960248201527f4552433732313a20617070726f766520746f2063616c6c6572000000000000006044820152606401610480565b6001600160a01b03838116600081815260056020908152604080832094871680845294825291829020805460ff191686151590811790915591519182527f17307eab39ab6107e8899845ad3d59bd9653f200f220920489ca2b5937696c31910160405180910390a3505050565b610e47848484610bfc565b610e5384848484610fbd565b6108865760405162461bcd60e51b8152600401610480906118e5565b6108508282604051806020016040528060008152506110ca565b6001811115610ef85760405162461bcd60e51b815260206004820152603560248201527f455243373231456e756d657261626c653a20636f6e7365637574697665207472604482015274185b9cd9995c9cc81b9bdd081cdd5c1c1bdc9d1959605a1b6064820152608401610480565b816001600160a01b038516610f5457610f4f81600880546000838152600960205260408120829055600182018355919091527ff3f7a9fe364faab93b216da50a3214154f22a0a2b415b23a84c8169e8b636ee30155565b610f77565b836001600160a01b0316856001600160a01b031614610f7757610f7785826110fd565b6001600160a01b038416610f9357610f8e8161119a565b610fb6565b846001600160a01b0316846001600160a01b031614610fb657610fb68482611249565b5050505050565b60006001600160a01b0384163b156110bf57604051630a85bd0160e11b81526001600160a01b0385169063150b7a0290611001903390899088908890600401611937565b602060405180830381600087803b15801561101b57600080fd5b505af192505050801561104b575060408051601f3d908101601f1916820190925261104891810190611974565b60015b6110a5573d808015611079576040519150601f19603f3d011682016040523d82523d6000602084013e61107e565b606091505b50805161109d5760405162461bcd60e51b8152600401610480906118e5565b805181602001fd5b6001600160e01b031916630a85bd0160e11b149050610bf4565b506001949350505050565b6110d4838361128d565b6110e16000848484610fbd565b6105215760405162461bcd60e51b8152600401610480906118e5565b6000600161110a846107b0565b6111149190611991565b600083815260076020526040902054909150808214611167576001600160a01b03841660009081526006602090815260408083208584528252808320548484528184208190558352600790915290208190555b5060009182526007602090815260408084208490556001600160a01b039094168352600681528383209183525290812055565b6008546000906111ac90600190611991565b600083815260096020526040812054600880549394509092849081106111d4576111d461188a565b9060005260206000200154905080600883815481106111f5576111f561188a565b600091825260208083209091019290925582815260099091526040808220849055858252812055600880548061122d5761122d6119b6565b6001900381819060005260206000200160009055905550505050565b6000611254836107b0565b6001600160a01b039093166000908152600660209081526040808320868452825280832085905593825260079052919091209190915550565b6001600160a01b0382166112e35760405162461bcd60e51b815260206004820181905260248201527f4552433732313a206d696e7420746f20746865207a65726f20616464726573736044820152606401610480565b6000818152600260205260409020546001600160a01b0316156113485760405162461bcd60e51b815260206004820152601c60248201527f4552433732313a20746f6b656e20616c7265616479206d696e746564000000006044820152606401610480565b611356600083836001610e89565b6000818152600260205260409020546001600160a01b0316156113bb5760405162461bcd60e51b815260206004820152601c60248201527f4552433732313a20746f6b656e20616c7265616479206d696e746564000000006044820152606401610480565b6001600160a01b038216600081815260036020908152604080832080546001019055848352600290915280822080546001600160a01b0319168417905551839291907fddf252ad1be2c89b69c2b068fc378daa952ba7f163c4a11628f55a4df523b3ef908290a45050565b82805461143290611802565b90600052602060002090601f016020900481019282611454576000855561149a565b82601f1061146d57805160ff191683800117855561149a565b8280016001018555821561149a579182015b8281111561149a57825182559160200191906001019061147f565b506114a69291506114aa565b5090565b5b808211156114a657600081556001016114ab565b6001600160e01b031981168114610b0c57600080fd5b6000602082840312156114e757600080fd5b81356114f2816114bf565b9392505050565b6000815180845260005b8181101561151f57602081850181015186830182015201611503565b81811115611531576000602083870101525b50601f01601f19169290920160200192915050565b6020815260006114f260208301846114f9565b60006020828403121561156b57600080fd5b5035919050565b80356001600160a01b038116811461158957600080fd5b919050565b600080604083850312156115a157600080fd5b6115aa83611572565b946020939093013593505050565b8381526001600160a01b03831660208201526060604082018190526000906115e2908301846114f9565b95945050505050565b60008060006060848603121561160057600080fd5b61160984611572565b925061161760208501611572565b9150604084013590509250925092565b60006020828403121561163957600080fd5b6114f282611572565b6000806040838503121561165557600080fd5b61165e83611572565b91506020830135801515811461167357600080fd5b809150509250929050565b634e487b7160e01b600052604160045260246000fd5b600067ffffffffffffffff808411156116af576116af61167e565b604051601f8501601f19908116603f011681019082821181831017156116d7576116d761167e565b816040528093508581528686860111156116f057600080fd5b858560208301376000602087830101525050509392505050565b6000806000806080858703121561172057600080fd5b61172985611572565b935061173760208601611572565b925060408501359150606085013567ffffffffffffffff81111561175a57600080fd5b8501601f8101871361176b57600080fd5b61177a87823560208401611694565b91505092959194509250565b60006020828403121561179857600080fd5b813567ffffffffffffffff8111156117af57600080fd5b8201601f810184136117c057600080fd5b610bf484823560208401611694565b600080604083850312156117e257600080fd5b6117eb83611572565b91506117f960208401611572565b90509250929050565b600181811c9082168061181657607f821691505b6020821081141561183757634e487b7160e01b600052602260045260246000fd5b50919050565b6020808252602d908201527f4552433732313a2063616c6c6572206973206e6f7420746f6b656e206f776e6560408201526c1c881bdc88185c1c1c9bdd9959609a1b606082015260800190565b634e487b7160e01b600052603260045260246000fd5b60208082526025908201527f4552433732313a207472616e736665722066726f6d20696e636f72726563742060408201526437bbb732b960d91b606082015260800190565b60208082526032908201527f4552433732313a207472616e7366657220746f206e6f6e20455243373231526560408201527131b2b4bb32b91034b6b83632b6b2b73a32b960711b606082015260800190565b6001600160a01b038581168252841660208201526040810183905260806060820181905260009061196a908301846114f9565b9695505050505050565b60006020828403121561198657600080fd5b81516114f2816114bf565b6000828210156119b157634e487b7160e01b600052601160045260246000fd5b500390565b634e487b7160e01b600052603160045260246000fdfea2646970667358221220c8ec56d9e41689d400e961f51070021325aa182b68df8670b48446af1e0e53d264736f6c63430008090033",
  "linkReferences": {},
  "deployedLinkReferences": {}
}