{
  "_format": "hh-sol-artifact-1",
  "contractName": "ArtToken",
  "sourceName": "contracts/ArtToken.sol",
  "abi": [
    {
      "inputs": [],
      "stateMutability": "nonpayable",
      "type": "constructor"
    },
    {
      "anonymous": false,
      "inputs": [
        {
          "indexed": true,
          "internalType": "address",
          "name": "owner",
          "type": "address"
        },
        {
          "indexed": true,
          "internalType": "address",
          "name": "approved",
          "type": "address"
        },
        {
          "indexed": true,
          "internalType": "uint256",
          "name": "tokenId",
          "type": "uint256"
        }
      ],
      "name": "Approval",
      "type": "event"
    },
    {
      "anonymous": false,
      "inputs": [
        {
          "indexed": true,
          "internalType": "address",
          "name": "owner",
          "type": "address"
        },
        {
          "indexed": true,
          "internalType": "address",
          "name": "operator",
          "type": "address"
        },
        {
          "indexed": false,
          "internalType": "bool",
          "name": "approved",
          "type": "bool"
        }
      ],
      "name": "ApprovalForAll",
      "type": "event"
    },
    {
      "anonymous": false,
      "inputs": [
        {
          "indexed": true,
          "internalType": "address",
          "name": "from",
          "type": "address"
        },
        {
          "indexed": true,
          "internalType": "address",
          "name": "to",
          "type": "address"
        },
        {
          "indexed": true,
          "internalType": "uint256",
          "name": "tokenId",
          "type": "uint256"
        }
      ],
      "name": "Transfer",
      "type": "event"
    },
    {
      "inputs": [
        {
          "internalType": "address",
          "name": "to",
          "type": "address"
        },
        {
          "internalType": "uint256",
          "name": "tokenId",
          "type": "uint256"
        }
      ],
      "name": "approve",
      "outputs": [],
      "stateMutability": "nonpayable",
      "type": "function"
    },
    {
      "inputs": [
        {
          "internalType": "address",
          "name": "owner",
          "type": "address"
        }
      ],
      "name": "balanceOf",
      "outputs": [
        {
          "internalType": "uint256",
          "name": "",
          "type": "uint256"
        }
      ],
      "stateMutability": "view",
      "type": "function"
    },
    {
      "inputs": [
        {
          "internalType": "uint256",
          "name": "tokenId",
          "type": "uint256"
        }
      ],
      "name": "getApproved",
      "outputs": [
        {
          "internalType": "address",
          "name": "",
          "type": "address"
        }
      ],
      "stateMutability": "view",
      "type": "function"
    },
    {
      "inputs": [
        {
          "internalType": "address",
          "name": "owner",
          "type": "address"
        },
        {
          "internalType": "address",
          "name": "operator",
          "type": "address"
        }
      ],
      "name": "isApprovedForAll",
      "outputs": [
        {
          "internalType": "bool",
          "name": "",
          "type": "bool"
        }
      ],
      "stateMutability": "view",
      "type": "function"
    },
    {
      "inputs": [
        {
          "internalType": "uint256",
          "name": "",
          "type": "uint256"
        }
      ],
      "name": "items",
      "outputs": [
        {
          "internalType": "address",
          "name": "creator",
          "type": "address"
        },
        {
          "internalType": "string",
          "name": "uri",
          "type": "string"
        }
      ],
      "stateMutability": "view",
      "type": "function"
    },
    {
      "inputs": [],
      "name": "marketplace",
      "outputs": [
        {
          "internalType": "address",
          "name": "",
          "type": "address"
        }
      ],
      "stateMutability": "view",
      "type": "function"
    },
    {
      "inputs": [
        {
          "internalType": "string",
          "name": "uri",
          "type": "string"
        }
      ],
      "name": "mint",
      "outputs": [
        {
          "internalType": "uint256",
          "name": "",
          "type": "uint256"
        }
      ],
      "stateMutability": "nonpayable",
      "type": "function"
    },
    {
      "inputs": [],
      "name": "name",
      "outputs": [
        {
          "internalType": "string",
          "name": "",
          "type": "string"
        }
      ],
      "stateMutability": "view",
      "type": "function"
    },
    {
      "inputs": [
        {
          "internalType": "uint256",
          "name": "tokenId",
          "type": "uint256"
        }
      ],
      "name": "ownerOf",
      "outputs": [
        {
          "internalType": "address",
          "name": "",
          "type": "address"
        }
      ],
      "stateMutability": "view",
      "type": "function"
    },
    {
      "inputs": [
        {
          "internalType": "address",
          "name": "from",
          "type": "address"
        },
        {
          "internalType": "address",
          "name": "to",
          "type": "address"
        },
        {
          "internalType": "uint256",
          "name": "tokenId",
          "type": "uint256"
        }
      ],
      "name": "safeTransferFrom",
      "outputs": [],
      "stateMutability": "nonpayable",
      "type": "function"
    },
    {
      "inputs": [
        {
          "internalType": "address",
          "name": "from",
          "type": "address"
        },
        {
          "internalType": "address",
          "name": "to",
          "type": "address"
        },
        {
          "internalType": "uint256",
          "name": "tokenId",
          "type": "uint256"
        },
        {
          "internalType": "bytes",
          "name": "data",
          "type": "bytes"
        }
      ],
      "name": "safeTransferFrom",
      "outputs": [],
      "stateMutability": "nonpayable",
      "type": "function"
    },
    {
      "inputs": [
        {
          "internalType": "address",
          "name": "operator",
          "type": "address"
        },
        {
          "internalType": "bool",
          "name": "approved",
          "type": "bool"
        }
      ],
      "name": "setApprovalForAll",
      "outputs": [],
      "stateMutability": "nonpayable",
      "type": "function"
    },
    {
      "inputs": [
        {
          "internalType": "address",
          "name": "market",
          "type": "address"
        }
      ],
      "name": "setMarketplace",
      "outputs": [],
      "stateMutability": "nonpayable",
      "type": "function"
    },
    {
      "inputs": [
        {
          "internalType": "bytes4",
          "name": "interfaceId",
          "type": "bytes4"
        }
      ],
      "name": "supportsInterface",
      "outputs": [
        {
          "internalType": "bool",
          "name": "",
          "type": "bool"
        }
      ],
      "stateMutability": "view",
      "type": "function"
    },
    {
      "inputs": [],
      "name": "symbol",
      "outputs": [
        {
          "internalType": "string",
          "name": "",
          "type": "string"
        }
      ],
      "stateMutability": "view",
      "type": "function"
    },
    {
      "inputs": [
        {
          "internalType": "uint256",
          "name": "index",
          "type": "uint256"
        }
      ],
      "name": "tokenByIndex",
      "outputs": [
        {
          "internalType": "uint256",
          "name": "",
          "type": "uint256"
        }
      ],
      "stateMutability": "view",
      "type": "function"
    },
    {
      "inputs": [
        {
          "internalType": "address",
          "name": "owner",
          "type": "address"
        },
        {
          "internalType": "uint256",
          "name": "index",
          "type": "uint256"
        }
      ],
      "name": "tokenOfOwnerByIndex",
      "outputs": [
        {
          "internalType": "uint256",
          "name": "",
          "type": "uint256"
        }
      ],
      "stateMutability": "view",
      "type": "function"
    },
    {
      "inputs": [
        {
          "internalType": "uint256",
          "name": "tokenId",
          "type": "uint256"
        }
      ],
      "name": "tokenURI",
      "outputs": [
        {
          "internalType": "string",
          "name": "",
          "type": "string"
        }
      ],
      "stateMutability": "view",
      "type": "function"
    },
    {
      "inputs": [],
      "name": "totalSupply",
      "outputs": [
        {
          "internalType": "uint256",
          "name": "",
          "type": "uint256"
        }
      ],
      "stateMutability": "view",
      "type": "function"
    },
    {
      "inputs": [
        {
          "internalType": "address",
          "name": "from",
          "type": "address"
        },
        {
          "internalType": "address",
          "name": "to",
          "type": "address"
        },
        {
          "internalType": "uint256",
          "name": "tokenId",
          "type": "uint256"
        }
      ],
      "name": "transferFrom",
      "outputs": [],
      "stateMutability": "nonpayable",
      "type": "function"
    }
  ],
  "bytecode": "0x60806040526001600b553480156200001657600080fd5b50604080518082018252600881526720b93a2a37b5b2b760c11b6020808301918252835180850190945260048452634152544b60e01b908401528151919291620000639160009162000082565b5080516200007990600190602084019062000082565b50505062000165565b828054620000909062000128565b90600052602060002090601f016020900481019282620000b45760008555620000ff565b82601f10620000cf57805160ff1916838001178555620000ff565b82800160010185558215620000ff579182015b82811115620000ff578251825591602001919060010190620000e2565b506200010d92915062000111565b5090565b5b808211156200010d576000815560010162000112565b600181811c908216806200013d57607f821691505b602082108114156200015f57634e487b7160e01b600052602260045260246000fd5b50919050565b6119f980620001756000396000f3fe608060405234801561001057600080fd5b506004361061012c5760003560e01c806370a08231116100ad578063b88d4fde11610071578063b88d4fde14610290578063bfb231d2146102a3578063c87b56dd146102c4578063d85d3d27146102d7578063e985e9c5146102ea57600080fd5b806370a082311461021f57806373ad6c2d1461023257806395d89b4114610262578063a22cb4651461026a578063abc8c7af1461027d57600080fd5b806323b872dd116100f457806323b872dd146101c05780632f745c59146101d357806342842e0e146101e65780634f6ccce7146101f95780636352211e1461020c57600080fd5b806301ffc9a71461013157806306fdde0314610159578063081812fc1461016e578063095ea7b31461019957806318160ddd146101ae575b600080fd5b61014461013f3660046114b8565b610326565b60405190151581526020015b60405180910390f35b610161610351565b6040516101509190611529565b61018161017c36600461153c565b6103e3565b6040516001600160a01b039091168152602001610150565b6101ac6101a7366004611571565b61040a565b005b6008545b604051908152602001610150565b6101ac6101ce36600461159b565b610525565b6101b26101e1366004611571565b610556565b6101ac6101f436600461159b565b6105ec565b6101b261020736600461153c565b610607565b61018161021a36600461153c565b61069a565b6101b261022d3660046115d7565b6106fa565b6101ac6102403660046115d7565b600a80546001600160a01b0319166001600160a01b0392909216919091179055565b610161610780565b6101ac6102783660046115f2565b61078f565b600a54610181906001600160a01b031681565b6101ac61029e3660046116ba565b61079e565b6102b66102b136600461153c565b6107d6565b604051610150929190611736565b6101616102d236600461153c565b610885565b6101b26102e536600461175a565b6109a7565b6101446102f83660046117a3565b6001600160a01b03918216600090815260056020908152604080832093909416825291909152205460ff1690565b60006001600160e01b0319821663780e9d6360e01b148061034b575061034b82610a40565b92915050565b606060008054610360906117d6565b80601f016020809104026020016040519081016040528092919081815260200182805461038c906117d6565b80156103d95780601f106103ae576101008083540402835291602001916103d9565b820191906000526020600020905b8154815290600101906020018083116103bc57829003601f168201915b5050505050905090565b60006103ee82610a90565b506000908152600460205260409020546001600160a01b031690565b60006104158261069a565b9050806001600160a01b0316836001600160a01b031614156104885760405162461bcd60e51b815260206004820152602160248201527f4552433732313a20617070726f76616c20746f2063757272656e74206f776e656044820152603960f91b60648201526084015b60405180910390fd5b336001600160a01b03821614806104a457506104a481336102f8565b6105165760405162461bcd60e51b815260206004820152603d60248201527f4552433732313a20617070726f76652063616c6c6572206973206e6f7420746f60448201527f6b656e206f776e6572206f7220617070726f76656420666f7220616c6c000000606482015260840161047f565b6105208383610af2565b505050565b61052f3382610b60565b61054b5760405162461bcd60e51b815260040161047f90611811565b610520838383610bdf565b6000610561836106fa565b82106105c35760405162461bcd60e51b815260206004820152602b60248201527f455243373231456e756d657261626c653a206f776e657220696e646578206f7560448201526a74206f6620626f756e647360a81b606482015260840161047f565b506001600160a01b03919091166000908152600660209081526040808320938352929052205490565b6105208383836040518060200160405280600081525061079e565b600061061260085490565b82106106755760405162461bcd60e51b815260206004820152602c60248201527f455243373231456e756d657261626c653a20676c6f62616c20696e646578206f60448201526b7574206f6620626f756e647360a01b606482015260840161047f565b600882815481106106885761068861185e565b90600052602060002001549050919050565b6000818152600260205260408120546001600160a01b03168061034b5760405162461bcd60e51b8152602060048201526018602482015277115490cdcc8c4e881a5b9d985b1a59081d1bdad95b88125160421b604482015260640161047f565b60006001600160a01b0382166107645760405162461bcd60e51b815260206004820152602960248201527f4552433732313a2061646472657373207a65726f206973206e6f7420612076616044820152683634b21037bbb732b960b91b606482015260840161047f565b506001600160a01b031660009081526003602052604090205490565b606060018054610360906117d6565b61079a338383610d50565b5050565b6107a83383610b60565b6107c45760405162461bcd60e51b815260040161047f90611811565b6107d084848484610e1f565b50505050565b600c60205260009081526040902080546001820180546001600160a01b039092169291610802906117d6565b80601f016020809104026020016040519081016040528092919081815260200182805461082e906117d6565b801561087b5780601f106108505761010080835404028352916020019161087b565b820191906000526020600020905b81548152906001019060200180831161085e57829003601f168201915b5050505050905082565b6000818152600260205260409020546060906001600160a01b03166109065760405162461bcd60e51b815260206004820152603160248201527f45524337323155524953746f726167653a2055524920717565727920666f72206044820152703737b732bc34b9ba32b73a103a37b5b2b760791b606482015260840161047f565b6000828152600c602052604090206001018054610922906117d6565b80601f016020809104026020016040519081016040528092919081815260200182805461094e906117d6565b801561099b5780601f106109705761010080835404028352916020019161099b565b820191906000526020600020905b81548152906001019060200180831161097e57829003601f168201915b50505050509050919050565b600b546000906109b73382610e52565b600a546109cd906001600160a01b03168261040a565b60408051808201825233815260208082018681526000858152600c835293909320825181546001600160a01b0319166001600160a01b0390911617815592518051929392610a219260018501920190611409565b5050600b805491506000610a348361188a565b90915550909392505050565b60006001600160e01b031982166380ac58cd60e01b1480610a7157506001600160e01b03198216635b5e139f60e01b145b8061034b57506301ffc9a760e01b6001600160e01b031983161461034b565b6000818152600260205260409020546001600160a01b0316610aef5760405162461bcd60e51b8152602060048201526018602482015277115490cdcc8c4e881a5b9d985b1a59081d1bdad95b88125160421b604482015260640161047f565b50565b600081815260046020526040902080546001600160a01b0319166001600160a01b0384169081179091558190610b278261069a565b6001600160a01b03167f8c5be1e5ebec7d5bd14f71427d1e84f3dd0314c0f7b2291e5b200ac8c7c3b92560405160405180910390a45050565b600080610b6c8361069a565b9050806001600160a01b0316846001600160a01b03161480610bb357506001600160a01b0380821660009081526005602090815260408083209388168352929052205460ff165b80610bd75750836001600160a01b0316610bcc846103e3565b6001600160a01b0316145b949350505050565b826001600160a01b0316610bf28261069a565b6001600160a01b031614610c185760405162461bcd60e51b815260040161047f906118a5565b6001600160a01b038216610c7a5760405162461bcd60e51b8152602060048201526024808201527f4552433732313a207472616e7366657220746f20746865207a65726f206164646044820152637265737360e01b606482015260840161047f565b610c878383836001610e6c565b826001600160a01b0316610c9a8261069a565b6001600160a01b031614610cc05760405162461bcd60e51b815260040161047f906118a5565b600081815260046020908152604080832080546001600160a01b03199081169091556001600160a01b0387811680865260038552838620805460001901905590871680865283862080546001019055868652600290945282852080549092168417909155905184937fddf252ad1be2c89b69c2b068fc378daa952ba7f163c4a11628f55a4df523b3ef91a4505050565b816001600160a01b0316836001600160a01b03161415610db25760405162461bcd60e51b815260206004820152601960248201527f4552433732313a20617070726f766520746f2063616c6c657200000000000000604482015260640161047f565b6001600160a01b03838116600081815260056020908152604080832094871680845294825291829020805460ff191686151590811790915591519182527f17307eab39ab6107e8899845ad3d59bd9653f200f220920489ca2b5937696c31910160405180910390a3505050565b610e2a848484610bdf565b610e3684848484610fa0565b6107d05760405162461bcd60e51b815260040161047f906118ea565b61079a8282604051806020016040528060008152506110ad565b6001811115610edb5760405162461bcd60e51b815260206004820152603560248201527f455243373231456e756d657261626c653a20636f6e7365637574697665207472604482015274185b9cd9995c9cc81b9bdd081cdd5c1c1bdc9d1959605a1b606482015260840161047f565b816001600160a01b038516610f3757610f3281600880546000838152600960205260408120829055600182018355919091527ff3f7a9fe364faab93b216da50a3214154f22a0a2b415b23a84c8169e8b636ee30155565b610f5a565b836001600160a01b0316856001600160a01b031614610f5a57610f5a85826110e0565b6001600160a01b038416610f7657610f718161117d565b610f99565b846001600160a01b0316846001600160a01b031614610f9957610f99848261122c565b5050505050565b60006001600160a01b0384163b156110a257604051630a85bd0160e11b81526001600160a01b0385169063150b7a0290610fe490339089908890889060040161193c565b602060405180830381600087803b158015610ffe57600080fd5b505af192505050801561102e575060408051601f3d908101601f1916820190925261102b91810190611979565b60015b611088573d80801561105c576040519150601f19603f3d011682016040523d82523d6000602084013e611061565b606091505b5080516110805760405162461bcd60e51b815260040161047f906118ea565b805181602001fd5b6001600160e01b031916630a85bd0160e11b149050610bd7565b506001949350505050565b6110b78383611270565b6110c46000848484610fa0565b6105205760405162461bcd60e51b815260040161047f906118ea565b600060016110ed846106fa565b6110f79190611996565b60008381526007602052604090205490915080821461114a576001600160a01b03841660009081526006602090815260408083208584528252808320548484528184208190558352600790915290208190555b5060009182526007602090815260408084208490556001600160a01b039094168352600681528383209183525290812055565b60085460009061118f90600190611996565b600083815260096020526040812054600880549394509092849081106111b7576111b761185e565b9060005260206000200154905080600883815481106111d8576111d861185e565b6000918252602080832090910192909255828152600990915260408082208490558582528120556008805480611210576112106119ad565b6001900381819060005260206000200160009055905550505050565b6000611237836106fa565b6001600160a01b039093166000908152600660209081526040808320868452825280832085905593825260079052919091209190915550565b6001600160a01b0382166112c65760405162461bcd60e51b815260206004820181905260248201527f4552433732313a206d696e7420746f20746865207a65726f2061646472657373604482015260640161047f565b6000818152600260205260409020546001600160a01b03161561132b5760405162461bcd60e51b815260206004820152601c60248201527f4552433732313a20746f6b656e20616c7265616479206d696e74656400000000604482015260640161047f565b611339600083836001610e6c565b6000818152600260205260409020546001600160a01b03161561139e5760405162461bcd60e51b815260206004820152601c60248201527f4552433732313a20746f6b656e20616c7265616479206d696e74656400000000604482015260640161047f565b6001600160a01b038216600081815260036020908152604080832080546001019055848352600290915280822080546001600160a01b0319168417905551839291907fddf252ad1be2c89b69c2b068fc378daa952ba7f163c4a11628f55a4df523b3ef908290a45050565b828054611415906117d6565b90600052602060002090601f016020900481019282611437576000855561147d565b82601f1061145057805160ff191683800117855561147d565b8280016001018555821561147d579182015b8281111561147d578251825591602001919060010190611462565b5061148992915061148d565b5090565b5b80821115611489576000815560010161148e565b6001600160e01b031981168114610aef57600080fd5b6000602082840312156114ca57600080fd5b81356114d5816114a2565b9392505050565b6000815180845260005b81811015611502576020818501810151868301820152016114e6565b81811115611514576000602083870101525b50601f01601f19169290920160200192915050565b6020815260006114d560208301846114dc565b60006020828403121561154e57600080fd5b5035919050565b80356001600160a01b038116811461156c57600080fd5b919050565b6000806040838503121561158457600080fd5b61158d83611555565b946020939093013593505050565b6000806000606084860312156115b057600080fd5b6115b984611555565b92506115c760208501611555565b9150604084013590509250925092565b6000602082840312156115e957600080fd5b6114d582611555565b6000806040838503121561160557600080fd5b61160e83611555565b91506020830135801515811461162357600080fd5b809150509250929050565b634e487b7160e01b600052604160045260246000fd5b600067ffffffffffffffff8084111561165f5761165f61162e565b604051601f8501601f19908116603f011681019082821181831017156116875761168761162e565b816040528093508581528686860111156116a057600080fd5b858560208301376000602087830101525050509392505050565b600080600080608085870312156116d057600080fd5b6116d985611555565b93506116e760208601611555565b925060408501359150606085013567ffffffffffffffff81111561170a57600080fd5b8501601f8101871361171b57600080fd5b61172a87823560208401611644565b91505092959194509250565b6001600160a01b0383168152604060208201819052600090610bd7908301846114dc565b60006020828403121561176c57600080fd5b813567ffffffffffffffff81111561178357600080fd5b8201601f8101841361179457600080fd5b610bd784823560208401611644565b600080604083850312156117b657600080fd5b6117bf83611555565b91506117cd60208401611555565b90509250929050565b600181811c908216806117ea57607f821691505b6020821081141561180b57634e487b7160e01b600052602260045260246000fd5b50919050565b6020808252602d908201527f4552433732313a2063616c6c6572206973206e6f7420746f6b656e206f776e6560408201526c1c881bdc88185c1c1c9bdd9959609a1b606082015260800190565b634e487b7160e01b600052603260045260246000fd5b634e487b7160e01b600052601160045260246000fd5b600060001982141561189e5761189e611874565b5060010190565b60208082526025908201527f4552433732313a207472616e736665722066726f6d20696e636f72726563742060408201526437bbb732b960d91b606082015260800190565b60208082526032908201527f4552433732313a207472616e7366657220746f206e6f6e20455243373231526560408201527131b2b4bb32b91034b6b83632b6b2b73a32b960711b606082015260800190565b6001600160a01b038581168252841660208201526040810183905260806060820181905260009061196f908301846114dc565b9695505050505050565b60006020828403121561198b57600080fd5b81516114d5816114a2565b6000828210156119a8576119a8611874565b500390565b634e487b7160e01b600052603160045260246000fdfea2646970667358221220c9ab14a5604fe8adb123ac37d7b84b77687fb38028d1ff0d45460d8da646fe2a64736f6c63430008090033",
  "linkReferences": {},
  "deployedLinkReferences": {}
}